{
  "_format": "hh3-artifact-1",
  "contractName": "FemCanvas",
  "sourceName": "contract/core/FemCanvas.sol",
  "abi": [
    {
      "inputs": [
        {
          "internalType": "string",
          "name": "initialURI",
          "type": "string"
        }
      ],
      "stateMutability": "nonpayable",
      "type": "constructor"
    },
    {
      "inputs": [
        {
          "internalType": "address",
          "name": "sender",
          "type": "address"
        },
        {
          "internalType": "uint256",
          "name": "balance",
          "type": "uint256"
        },
        {
          "internalType": "uint256",
          "name": "needed",
          "type": "uint256"
        },
        {
          "internalType": "uint256",
          "name": "tokenId",
          "type": "uint256"
        }
      ],
      "name": "ERC1155InsufficientBalance",
      "type": "error"
    },
    {
      "inputs": [
        {
          "internalType": "address",
          "name": "approver",
          "type": "address"
        }
      ],
      "name": "ERC1155InvalidApprover",
      "type": "error"
    },
    {
      "inputs": [
        {
          "internalType": "uint256",
          "name": "idsLength",
          "type": "uint256"
        },
        {
          "internalType": "uint256",
          "name": "valuesLength",
          "type": "uint256"
        }
      ],
      "name": "ERC1155InvalidArrayLength",
      "type": "error"
    },
    {
      "inputs": [
        {
          "internalType": "address",
          "name": "operator",
          "type": "address"
        }
      ],
      "name": "ERC1155InvalidOperator",
      "type": "error"
    },
    {
      "inputs": [
        {
          "internalType": "address",
          "name": "receiver",
          "type": "address"
        }
      ],
      "name": "ERC1155InvalidReceiver",
      "type": "error"
    },
    {
      "inputs": [
        {
          "internalType": "address",
          "name": "sender",
          "type": "address"
        }
      ],
      "name": "ERC1155InvalidSender",
      "type": "error"
    },
    {
      "inputs": [
        {
          "internalType": "address",
          "name": "operator",
          "type": "address"
        },
        {
          "internalType": "address",
          "name": "owner",
          "type": "address"
        }
      ],
      "name": "ERC1155MissingApprovalForAll",
      "type": "error"
    },
    {
      "inputs": [
        {
          "internalType": "address",
          "name": "owner",
          "type": "address"
        }
      ],
      "name": "OwnableInvalidOwner",
      "type": "error"
    },
    {
      "inputs": [
        {
          "internalType": "address",
          "name": "account",
          "type": "address"
        }
      ],
      "name": "OwnableUnauthorizedAccount",
      "type": "error"
    },
    {
      "inputs": [],
      "name": "ReentrancyGuardReentrantCall",
      "type": "error"
    },
    {
      "anonymous": false,
      "inputs": [
        {
          "indexed": true,
          "internalType": "address",
          "name": "account",
          "type": "address"
        },
        {
          "indexed": true,
          "internalType": "address",
          "name": "operator",
          "type": "address"
        },
        {
          "indexed": false,
          "internalType": "bool",
          "name": "approved",
          "type": "bool"
        }
      ],
      "name": "ApprovalForAll",
      "type": "event"
    },
    {
      "anonymous": false,
      "inputs": [
        {
          "indexed": true,
          "internalType": "uint256",
          "name": "canvasId",
          "type": "uint256"
        },
        {
          "indexed": false,
          "internalType": "uint256",
          "name": "dayTimestamp",
          "type": "uint256"
        }
      ],
      "name": "CanavasFinalized",
      "type": "event"
    },
    {
      "anonymous": false,
      "inputs": [
        {
          "indexed": true,
          "internalType": "uint256",
          "name": "canvasId",
          "type": "uint256"
        },
        {
          "indexed": true,
          "internalType": "uint256",
          "name": "dayTimestamp",
          "type": "uint256"
        },
        {
          "indexed": false,
          "internalType": "string",
          "name": "metadataURI",
          "type": "string"
        },
        {
          "indexed": true,
          "internalType": "address",
          "name": "creator",
          "type": "address"
        },
        {
          "indexed": false,
          "internalType": "uint256",
          "name": "canvasCounter",
          "type": "uint256"
        }
      ],
      "name": "CanvasCreated",
      "type": "event"
    },
    {
      "anonymous": false,
      "inputs": [
        {
          "indexed": true,
          "internalType": "uint256",
          "name": "canvasId",
          "type": "uint256"
        },
        {
          "indexed": false,
          "internalType": "string",
          "name": "newURI",
          "type": "string"
        }
      ],
      "name": "CanvasURIUpdate",
      "type": "event"
    },
    {
      "anonymous": false,
      "inputs": [
        {
          "indexed": true,
          "internalType": "address",
          "name": "previousOwner",
          "type": "address"
        },
        {
          "indexed": true,
          "internalType": "address",
          "name": "newOwner",
          "type": "address"
        }
      ],
      "name": "OwnershipTransferred",
      "type": "event"
    },
    {
      "anonymous": false,
      "inputs": [
        {
          "indexed": true,
          "internalType": "address",
          "name": "operator",
          "type": "address"
        },
        {
          "indexed": true,
          "internalType": "address",
          "name": "from",
          "type": "address"
        },
        {
          "indexed": true,
          "internalType": "address",
          "name": "to",
          "type": "address"
        },
        {
          "indexed": false,
          "internalType": "uint256[]",
          "name": "ids",
          "type": "uint256[]"
        },
        {
          "indexed": false,
          "internalType": "uint256[]",
          "name": "values",
          "type": "uint256[]"
        }
      ],
      "name": "TransferBatch",
      "type": "event"
    },
    {
      "anonymous": false,
      "inputs": [
        {
          "indexed": true,
          "internalType": "address",
          "name": "operator",
          "type": "address"
        },
        {
          "indexed": true,
          "internalType": "address",
          "name": "from",
          "type": "address"
        },
        {
          "indexed": true,
          "internalType": "address",
          "name": "to",
          "type": "address"
        },
        {
          "indexed": false,
          "internalType": "uint256",
          "name": "id",
          "type": "uint256"
        },
        {
          "indexed": false,
          "internalType": "uint256",
          "name": "value",
          "type": "uint256"
        }
      ],
      "name": "TransferSingle",
      "type": "event"
    },
    {
      "anonymous": false,
      "inputs": [
        {
          "indexed": false,
          "internalType": "string",
          "name": "value",
          "type": "string"
        },
        {
          "indexed": true,
          "internalType": "uint256",
          "name": "id",
          "type": "uint256"
        }
      ],
      "name": "URI",
      "type": "event"
    },
    {
      "inputs": [],
      "name": "PUBLIC_SUPPLY_LIMIT",
      "outputs": [
        {
          "internalType": "uint256",
          "name": "",
          "type": "uint256"
        }
      ],
      "stateMutability": "view",
      "type": "function"
    },
    {
      "inputs": [
        {
          "internalType": "address",
          "name": "",
          "type": "address"
        }
      ],
      "name": "authorizedMinters",
      "outputs": [
        {
          "internalType": "bool",
          "name": "",
          "type": "bool"
        }
      ],
      "stateMutability": "view",
      "type": "function"
    },
    {
      "inputs": [
        {
          "internalType": "address",
          "name": "account",
          "type": "address"
        },
        {
          "internalType": "uint256",
          "name": "id",
          "type": "uint256"
        }
      ],
      "name": "balanceOf",
      "outputs": [
        {
          "internalType": "uint256",
          "name": "",
          "type": "uint256"
        }
      ],
      "stateMutability": "view",
      "type": "function"
    },
    {
      "inputs": [
        {
          "internalType": "address[]",
          "name": "accounts",
          "type": "address[]"
        },
        {
          "internalType": "uint256[]",
          "name": "ids",
          "type": "uint256[]"
        }
      ],
      "name": "balanceOfBatch",
      "outputs": [
        {
          "internalType": "uint256[]",
          "name": "",
          "type": "uint256[]"
        }
      ],
      "stateMutability": "view",
      "type": "function"
    },
    {
      "inputs": [
        {
          "internalType": "uint256",
          "name": "canvasId",
          "type": "uint256"
        }
      ],
      "name": "buyCanvas",
      "outputs": [],
      "stateMutability": "payable",
      "type": "function"
    },
    {
      "inputs": [],
      "name": "canvasCounter",
      "outputs": [
        {
          "internalType": "uint256",
          "name": "",
          "type": "uint256"
        }
      ],
      "stateMutability": "view",
      "type": "function"
    },
    {
      "inputs": [
        {
          "internalType": "uint256",
          "name": "canvasId",
          "type": "uint256"
        }
      ],
      "name": "canvasExists",
      "outputs": [
        {
          "internalType": "bool",
          "name": "",
          "type": "bool"
        }
      ],
      "stateMutability": "view",
      "type": "function"
    },
    {
      "inputs": [
        {
          "internalType": "uint256",
          "name": "",
          "type": "uint256"
        }
      ],
      "name": "canvasPrice",
      "outputs": [
        {
          "internalType": "uint256",
          "name": "",
          "type": "uint256"
        }
      ],
      "stateMutability": "view",
      "type": "function"
    },
    {
      "inputs": [
        {
          "internalType": "uint256",
          "name": "",
          "type": "uint256"
        }
      ],
      "name": "canvases",
      "outputs": [
        {
          "internalType": "uint256",
          "name": "canvasId",
          "type": "uint256"
        },
        {
          "internalType": "uint256",
          "name": "dayTimestamp",
          "type": "uint256"
        },
        {
          "internalType": "string",
          "name": "metadataURI",
          "type": "string"
        },
        {
          "internalType": "address",
          "name": "creator",
          "type": "address"
        },
        {
          "internalType": "uint256",
          "name": "totalRaised",
          "type": "uint256"
        },
        {
          "internalType": "bool",
          "name": "finalized",
          "type": "bool"
        }
      ],
      "stateMutability": "view",
      "type": "function"
    },
    {
      "inputs": [
        {
          "internalType": "uint256",
          "name": "",
          "type": "uint256"
        }
      ],
      "name": "dayToCanvasId",
      "outputs": [
        {
          "internalType": "uint256",
          "name": "",
          "type": "uint256"
        }
      ],
      "stateMutability": "view",
      "type": "function"
    },
    {
      "inputs": [
        {
          "internalType": "uint256",
          "name": "canvasId",
          "type": "uint256"
        }
      ],
      "name": "finalized",
      "outputs": [],
      "stateMutability": "nonpayable",
      "type": "function"
    },
    {
      "inputs": [
        {
          "internalType": "uint256",
          "name": "canvasId",
          "type": "uint256"
        }
      ],
      "name": "getCanvas",
      "outputs": [
        {
          "components": [
            {
              "internalType": "uint256",
              "name": "canvasId",
              "type": "uint256"
            },
            {
              "internalType": "uint256",
              "name": "dayTimestamp",
              "type": "uint256"
            },
            {
              "internalType": "string",
              "name": "metadataURI",
              "type": "string"
            },
            {
              "internalType": "address",
              "name": "creator",
              "type": "address"
            },
            {
              "internalType": "uint256",
              "name": "totalRaised",
              "type": "uint256"
            },
            {
              "internalType": "bool",
              "name": "finalized",
              "type": "bool"
            }
          ],
          "internalType": "struct IFemCanvas.Canvas",
          "name": "",
          "type": "tuple"
        }
      ],
      "stateMutability": "view",
      "type": "function"
    },
    {
      "inputs": [
        {
          "internalType": "uint256",
          "name": "dayTimestamp",
          "type": "uint256"
        }
      ],
      "name": "getCanvasIdByDay",
      "outputs": [
        {
          "internalType": "uint256",
          "name": "",
          "type": "uint256"
        }
      ],
      "stateMutability": "view",
      "type": "function"
    },
    {
      "inputs": [
        {
          "internalType": "uint256",
          "name": "canvasId",
          "type": "uint256"
        }
      ],
      "name": "getCanvasPurchaseInfo",
      "outputs": [
        {
          "internalType": "uint256",
          "name": "price",
          "type": "uint256"
        },
        {
          "internalType": "uint256",
          "name": "minted",
          "type": "uint256"
        },
        {
          "internalType": "uint256",
          "name": "remaining",
          "type": "uint256"
        },
        {
          "internalType": "bool",
          "name": "userHasMinted",
          "type": "bool"
        }
      ],
      "stateMutability": "view",
      "type": "function"
    },
    {
      "inputs": [],
      "name": "getCurrentCanvasCounter",
      "outputs": [
        {
          "internalType": "uint256",
          "name": "",
          "type": "uint256"
        }
      ],
      "stateMutability": "view",
      "type": "function"
    },
    {
      "inputs": [
        {
          "internalType": "uint256",
          "name": "",
          "type": "uint256"
        },
        {
          "internalType": "address",
          "name": "",
          "type": "address"
        }
      ],
      "name": "hasMinted",
      "outputs": [
        {
          "internalType": "bool",
          "name": "",
          "type": "bool"
        }
      ],
      "stateMutability": "view",
      "type": "function"
    },
    {
      "inputs": [
        {
          "internalType": "address",
          "name": "account",
          "type": "address"
        },
        {
          "internalType": "address",
          "name": "operator",
          "type": "address"
        }
      ],
      "name": "isApprovedForAll",
      "outputs": [
        {
          "internalType": "bool",
          "name": "",
          "type": "bool"
        }
      ],
      "stateMutability": "view",
      "type": "function"
    },
    {
      "inputs": [
        {
          "internalType": "uint256",
          "name": "canvasId",
          "type": "uint256"
        },
        {
          "internalType": "uint256",
          "name": "dayTimestamp",
          "type": "uint256"
        },
        {
          "internalType": "string",
          "name": "_metadataURI",
          "type": "string"
        },
        {
          "internalType": "uint256",
          "name": "supply",
          "type": "uint256"
        }
      ],
      "name": "mintCanvas",
      "outputs": [],
      "stateMutability": "payable",
      "type": "function"
    },
    {
      "inputs": [
        {
          "internalType": "address",
          "name": "to",
          "type": "address"
        },
        {
          "internalType": "uint256",
          "name": "canvasId",
          "type": "uint256"
        },
        {
          "internalType": "uint256",
          "name": "contributions",
          "type": "uint256"
        }
      ],
      "name": "mintToContributor",
      "outputs": [],
      "stateMutability": "nonpayable",
      "type": "function"
    },
    {
      "inputs": [],
      "name": "owner",
      "outputs": [
        {
          "internalType": "address",
          "name": "",
          "type": "address"
        }
      ],
      "stateMutability": "view",
      "type": "function"
    },
    {
      "inputs": [
        {
          "internalType": "uint256",
          "name": "",
          "type": "uint256"
        }
      ],
      "name": "publicMinted",
      "outputs": [
        {
          "internalType": "uint256",
          "name": "",
          "type": "uint256"
        }
      ],
      "stateMutability": "view",
      "type": "function"
    },
    {
      "inputs": [],
      "name": "renounceOwnership",
      "outputs": [],
      "stateMutability": "nonpayable",
      "type": "function"
    },
    {
      "inputs": [],
      "name": "revenueContract",
      "outputs": [
        {
          "internalType": "contract IFemCanvasRevenue",
          "name": "",
          "type": "address"
        }
      ],
      "stateMutability": "view",
      "type": "function"
    },
    {
      "inputs": [
        {
          "internalType": "address",
          "name": "from",
          "type": "address"
        },
        {
          "internalType": "address",
          "name": "to",
          "type": "address"
        },
        {
          "internalType": "uint256[]",
          "name": "ids",
          "type": "uint256[]"
        },
        {
          "internalType": "uint256[]",
          "name": "values",
          "type": "uint256[]"
        },
        {
          "internalType": "bytes",
          "name": "data",
          "type": "bytes"
        }
      ],
      "name": "safeBatchTransferFrom",
      "outputs": [],
      "stateMutability": "nonpayable",
      "type": "function"
    },
    {
      "inputs": [
        {
          "internalType": "address",
          "name": "from",
          "type": "address"
        },
        {
          "internalType": "address",
          "name": "to",
          "type": "address"
        },
        {
          "internalType": "uint256",
          "name": "id",
          "type": "uint256"
        },
        {
          "internalType": "uint256",
          "name": "value",
          "type": "uint256"
        },
        {
          "internalType": "bytes",
          "name": "data",
          "type": "bytes"
        }
      ],
      "name": "safeTransferFrom",
      "outputs": [],
      "stateMutability": "nonpayable",
      "type": "function"
    },
    {
      "inputs": [
        {
          "internalType": "address",
          "name": "operator",
          "type": "address"
        },
        {
          "internalType": "bool",
          "name": "approved",
          "type": "bool"
        }
      ],
      "name": "setApprovalForAll",
      "outputs": [],
      "stateMutability": "nonpayable",
      "type": "function"
    },
    {
      "inputs": [
        {
          "internalType": "address",
          "name": "minter",
          "type": "address"
        },
        {
          "internalType": "bool",
          "name": "authorized",
          "type": "bool"
        }
      ],
      "name": "setAuthorizedMinter",
      "outputs": [],
      "stateMutability": "nonpayable",
      "type": "function"
    },
    {
      "inputs": [
        {
          "internalType": "uint256",
          "name": "canvasId",
          "type": "uint256"
        },
        {
          "internalType": "uint256",
          "name": "price",
          "type": "uint256"
        }
      ],
      "name": "setCanvasPrice",
      "outputs": [],
      "stateMutability": "nonpayable",
      "type": "function"
    },
    {
      "inputs": [
        {
          "internalType": "address",
          "name": "_revenueContract",
          "type": "address"
        }
      ],
      "name": "setRevenueContract",
      "outputs": [],
      "stateMutability": "nonpayable",
      "type": "function"
    },
    {
      "inputs": [
        {
          "internalType": "bytes4",
          "name": "interfaceId",
          "type": "bytes4"
        }
      ],
      "name": "supportsInterface",
      "outputs": [
        {
          "internalType": "bool",
          "name": "",
          "type": "bool"
        }
      ],
      "stateMutability": "view",
      "type": "function"
    },
    {
      "inputs": [
        {
          "internalType": "address",
          "name": "newOwner",
          "type": "address"
        }
      ],
      "name": "transferOwnership",
      "outputs": [],
      "stateMutability": "nonpayable",
      "type": "function"
    },
    {
      "inputs": [
        {
          "internalType": "uint256",
          "name": "canvasId",
          "type": "uint256"
        },
        {
          "internalType": "string",
          "name": "newURI",
          "type": "string"
        }
      ],
      "name": "updateCanvasURI",
      "outputs": [],
      "stateMutability": "nonpayable",
      "type": "function"
    },
    {
      "inputs": [
        {
          "internalType": "uint256",
          "name": "canvasId",
          "type": "uint256"
        },
        {
          "internalType": "uint256",
          "name": "amount",
          "type": "uint256"
        }
      ],
      "name": "updateTotalRaised",
      "outputs": [],
      "stateMutability": "nonpayable",
      "type": "function"
    },
    {
      "inputs": [
        {
          "internalType": "uint256",
          "name": "tokenId",
          "type": "uint256"
        }
      ],
      "name": "uri",
      "outputs": [
        {
          "internalType": "string",
          "name": "",
          "type": "string"
        }
      ],
      "stateMutability": "view",
      "type": "function"
    }
  ],
  "bytecode": "0x608060405234801562000010575f80fd5b506040516200547b3803806200547b833981810160405281019062000036919062000390565b338162000049816200013360201b60201c565b505f73ffffffffffffffffffffffffffffffffffffffff168173ffffffffffffffffffffffffffffffffffffffff1603620000bd575f6040517f1e4fbdf7000000000000000000000000000000000000000000000000000000008152600401620000b4919062000422565b60405180910390fd5b620000ce816200014860201b60201c565b506001600481905550600160095f3373ffffffffffffffffffffffffffffffffffffffff1673ffffffffffffffffffffffffffffffffffffffff1681526020019081526020015f205f6101000a81548160ff0219169083151502179055505062000758565b806002908162000144919062000674565b5050565b5f60035f9054906101000a900473ffffffffffffffffffffffffffffffffffffffff1690508160035f6101000a81548173ffffffffffffffffffffffffffffffffffffffff021916908373ffffffffffffffffffffffffffffffffffffffff1602179055508173ffffffffffffffffffffffffffffffffffffffff168173ffffffffffffffffffffffffffffffffffffffff167f8be0079c531659141344cd1fd0a4f28419497f9722a3daafe3b4186f6b6457e060405160405180910390a35050565b5f604051905090565b5f80fd5b5f80fd5b5f80fd5b5f80fd5b5f601f19601f8301169050919050565b7f4e487b71000000000000000000000000000000000000000000000000000000005f52604160045260245ffd5b6200026c8262000224565b810181811067ffffffffffffffff821117156200028e576200028d62000234565b5b80604052505050565b5f620002a26200020b565b9050620002b0828262000261565b919050565b5f67ffffffffffffffff821115620002d257620002d162000234565b5b620002dd8262000224565b9050602081019050919050565b5f5b8381101562000309578082015181840152602081019050620002ec565b5f8484015250505050565b5f6200032a6200032484620002b5565b62000297565b90508281526020810184848401111562000349576200034862000220565b5b62000356848285620002ea565b509392505050565b5f82601f8301126200037557620003746200021c565b5b81516200038784826020860162000314565b91505092915050565b5f60208284031215620003a857620003a762000214565b5b5f82015167ffffffffffffffff811115620003c857620003c762000218565b5b620003d6848285016200035e565b91505092915050565b5f73ffffffffffffffffffffffffffffffffffffffff82169050919050565b5f6200040a82620003df565b9050919050565b6200041c81620003fe565b82525050565b5f602082019050620004375f83018462000411565b92915050565b5f81519050919050565b7f4e487b71000000000000000000000000000000000000000000000000000000005f52602260045260245ffd5b5f60028204905060018216806200048c57607f821691505b602082108103620004a257620004a162000447565b5b50919050565b5f819050815f5260205f209050919050565b5f6020601f8301049050919050565b5f82821b905092915050565b5f60088302620005067fffffffffffffffffffffffffffffffffffffffffffffffffffffffffffffffff82620004c9565b620005128683620004c9565b95508019841693508086168417925050509392505050565b5f819050919050565b5f819050919050565b5f6200055c6200055662000550846200052a565b62000533565b6200052a565b9050919050565b5f819050919050565b62000577836200053c565b6200058f620005868262000563565b848454620004d5565b825550505050565b5f90565b620005a562000597565b620005b28184846200056c565b505050565b5b81811015620005d957620005cd5f826200059b565b600181019050620005b8565b5050565b601f8211156200062857620005f281620004a8565b620005fd84620004ba565b810160208510156200060d578190505b620006256200061c85620004ba565b830182620005b7565b50505b505050565b5f82821c905092915050565b5f6200064a5f19846008026200062d565b1980831691505092915050565b5f62000664838362000639565b9150826002028217905092915050565b6200067f826200043d565b67ffffffffffffffff8111156200069b576200069a62000234565b5b620006a7825462000474565b620006b4828285620005dd565b5f60209050601f831160018114620006ea575f8415620006d5578287015190505b620006e1858262000657565b86555062000750565b601f198416620006fa86620004a8565b5f5b828110156200072357848901518255600182019150602085019450602081019050620006fc565b868310156200074357848901516200073f601f89168262000639565b8355505b6001600288020188555050505b505050505050565b614d1580620007665f395ff3fe6080604052600436106101f7575f3560e01c8063757612be1161010c578063c70d981b1161009f578063de7f93b51161006e578063de7f93b514610783578063e985e9c5146107ab578063ed58bad8146107e7578063f242432a1461080f578063f2fde38b14610837576101f7565b8063c70d981b146106b4578063c884d21e146106f0578063c972f5011461071a578063d9d197a614610742576101f7565b8063a22cb465116100db578063a22cb465146105f8578063a2ec5c8b14610620578063a6ca50231461065c578063aa2fe91b14610678576101f7565b8063757612be146105425780637a3342f11461056a5780638da5cb5b1461059257806396379edd146105bc576101f7565b80633f193b201161018f5780634ddaced21161015e5780634ddaced21461046d5780634e1273f414610495578063526aa46c146104d157806352ee027014610510578063715018a61461052c576101f7565b80633f193b20146103a357806340f9c893146103cd57806345d7e40514610409578063498a6de714610445576101f7565b80630e89341c116101cb5780630e89341c146102d95780632eb2c2d61461031557806330b486b11461033d578063348de6dc14610379576101f7565b8062fdd58e146101fb57806301ffc9a714610237578063037807331461027357806304cd6510146102af575b5f80fd5b348015610206575f80fd5b50610221600480360381019061021c91906131e8565b61085f565b60405161022e9190613235565b60405180910390f35b348015610242575f80fd5b5061025d600480360381019061025891906132a3565b6108b4565b60405161026a91906132e8565b60405180910390f35b34801561027e575f80fd5b5061029960048036038101906102949190613301565b610995565b6040516102a691906132e8565b60405180910390f35b3480156102ba575f80fd5b506102c36109bf565b6040516102d09190613235565b60405180910390f35b3480156102e4575f80fd5b506102ff60048036038101906102fa919061333f565b6109c5565b60405161030c91906133f4565b60405180910390f35b348015610320575f80fd5b5061033b60048036038101906103369190613604565b610abe565b005b348015610348575f80fd5b50610363600480360381019061035e919061333f565b610b65565b60405161037091906132e8565b60405180910390f35b348015610384575f80fd5b5061038d610b84565b60405161039a9190613235565b60405180910390f35b3480156103ae575f80fd5b506103b7610b8d565b6040516103c49190613235565b60405180910390f35b3480156103d8575f80fd5b506103f360048036038101906103ee919061333f565b610b92565b6040516104009190613235565b60405180910390f35b348015610414575f80fd5b5061042f600480360381019061042a919061333f565b610ba7565b60405161043c91906137ca565b60405180910390f35b348015610450575f80fd5b5061046b600480360381019061046691906137ea565b610d43565b005b348015610478575f80fd5b50610493600480360381019061048e919061333f565b610dfc565b005b3480156104a0575f80fd5b506104bb60048036038101906104b691906138d5565b610ff3565b6040516104c891906139f3565b60405180910390f35b3480156104dc575f80fd5b506104f760048036038101906104f2919061333f565b611100565b6040516105079493929190613a13565b60405180910390f35b61052a6004803603810190610525919061333f565b61119d565b005b348015610537575f80fd5b50610540611610565b005b34801561054d575f80fd5b5061056860048036038101906105639190613aaf565b611623565b005b348015610575575f80fd5b50610590600480360381019061058b9190613b0c565b611802565b005b34801561059d575f80fd5b506105a6611879565b6040516105b39190613b59565b60405180910390f35b3480156105c7575f80fd5b506105e260048036038101906105dd919061333f565b6118a1565b6040516105ef9190613235565b60405180910390f35b348015610603575f80fd5b5061061e60048036038101906106199190613b9c565b6118b6565b005b34801561062b575f80fd5b506106466004803603810190610641919061333f565b6118cc565b6040516106539190613235565b60405180910390f35b61067660048036038101906106719190613bda565b6118e6565b005b348015610683575f80fd5b5061069e600480360381019061069991906137ea565b611c8b565b6040516106ab91906132e8565b60405180910390f35b3480156106bf575f80fd5b506106da60048036038101906106d5919061333f565b611ca8565b6040516106e79190613235565b60405180910390f35b3480156106fb575f80fd5b50610704611cbd565b6040516107119190613cb9565b60405180910390f35b348015610725575f80fd5b50610740600480360381019061073b9190613b0c565b611ce2565b005b34801561074d575f80fd5b506107686004803603810190610763919061333f565b611e6d565b60405161077a96959493929190613cd2565b60405180910390f35b34801561078e575f80fd5b506107a960048036038101906107a49190613d38565b611f56565b005b3480156107b6575f80fd5b506107d160048036038101906107cc9190613d88565b6120f0565b6040516107de91906132e8565b60405180910390f35b3480156107f2575f80fd5b5061080d60048036038101906108089190613b9c565b61217e565b005b34801561081a575f80fd5b5061083560048036038101906108309190613dc6565b6121de565b005b348015610842575f80fd5b5061085d600480360381019061085891906137ea565b612285565b005b5f805f8381526020019081526020015f205f8473ffffffffffffffffffffffffffffffffffffffff1673ffffffffffffffffffffffffffffffffffffffff1681526020019081526020015f2054905092915050565b5f7fd9b67a26000000000000000000000000000000000000000000000000000000007bffffffffffffffffffffffffffffffffffffffffffffffffffffffff1916827bffffffffffffffffffffffffffffffffffffffffffffffffffffffff1916148061097e57507f0e89341c000000000000000000000000000000000000000000000000000000007bffffffffffffffffffffffffffffffffffffffffffffffffffffffff1916827bffffffffffffffffffffffffffffffffffffffffffffffffffffffff1916145b8061098e575061098d82612309565b5b9050919050565b600c602052815f5260405f20602052805f5260405f205f915091509054906101000a900460ff1681565b60055481565b60605f60075f8481526020019081526020015f205f015403610a1c576040517f08c379a0000000000000000000000000000000000000000000000000000000008152600401610a1390613ea3565b60405180910390fd5b60075f8381526020019081526020015f206002018054610a3b90613eee565b80601f0160208091040260200160405190810160405280929190818152602001828054610a6790613eee565b8015610ab25780601f10610a8957610100808354040283529160200191610ab2565b820191905f5260205f20905b815481529060010190602001808311610a9557829003601f168201915b50505050509050919050565b5f610ac7612372565b90508073ffffffffffffffffffffffffffffffffffffffff168673ffffffffffffffffffffffffffffffffffffffff1614158015610b0c5750610b0a86826120f0565b155b15610b505780866040517fe237d922000000000000000000000000000000000000000000000000000000008152600401610b47929190613f1e565b60405180910390fd5b610b5d8686868686612379565b505050505050565b5f8060075f8481526020019081526020015f205f015414159050919050565b5f600554905090565b606481565b600a602052805f5260405f205f915090505481565b610baf613101565b5f60075f8481526020019081526020015f205f015403610c04576040517f08c379a0000000000000000000000000000000000000000000000000000000008152600401610bfb90613ea3565b60405180910390fd5b60075f8381526020019081526020015f206040518060c00160405290815f820154815260200160018201548152602001600282018054610c4390613eee565b80601f0160208091040260200160405190810160405280929190818152602001828054610c6f90613eee565b8015610cba5780601f10610c9157610100808354040283529160200191610cba565b820191905f5260205f20905b815481529060010190602001808311610c9d57829003601f168201915b50505050508152602001600382015f9054906101000a900473ffffffffffffffffffffffffffffffffffffffff1673ffffffffffffffffffffffffffffffffffffffff1673ffffffffffffffffffffffffffffffffffffffff16815260200160048201548152602001600582015f9054906101000a900460ff1615151515815250509050919050565b610d4b61246d565b5f73ffffffffffffffffffffffffffffffffffffffff168173ffffffffffffffffffffffffffffffffffffffff1603610db9576040517f08c379a0000000000000000000000000000000000000000000000000000000008152600401610db090613f8f565b60405180910390fd5b80600d5f6101000a81548173ffffffffffffffffffffffffffffffffffffffff021916908373ffffffffffffffffffffffffffffffffffffffff16021790555050565b60095f3373ffffffffffffffffffffffffffffffffffffffff1673ffffffffffffffffffffffffffffffffffffffff1681526020019081526020015f205f9054906101000a900460ff1680610e835750610e54611879565b73ffffffffffffffffffffffffffffffffffffffff163373ffffffffffffffffffffffffffffffffffffffff16145b610ec2576040517f08c379a0000000000000000000000000000000000000000000000000000000008152600401610eb990613ff7565b60405180910390fd5b5f60075f8381526020019081526020015f205f015403610f17576040517f08c379a0000000000000000000000000000000000000000000000000000000008152600401610f0e90613ea3565b60405180910390fd5b60075f8281526020019081526020015f206005015f9054906101000a900460ff1615610f78576040517f08c379a0000000000000000000000000000000000000000000000000000000008152600401610f6f9061405f565b60405180910390fd5b600160075f8381526020019081526020015f206005015f6101000a81548160ff021916908315150217905550807f30a0000e83b2de59fc783a48070b4fb1e59e327bb99d6e35dcdde18d00a80a7f60075f8481526020019081526020015f2060010154604051610fe89190613235565b60405180910390a250565b6060815183511461103f57815183516040517f5b05999100000000000000000000000000000000000000000000000000000000815260040161103692919061407d565b60405180910390fd5b5f835167ffffffffffffffff81111561105b5761105a613418565b5b6040519080825280602002602001820160405280156110895781602001602082028036833780820191505090505b5090505f5b84518110156110f5576110c56110ad82876124f490919063ffffffff16565b6110c0838761250790919063ffffffff16565b61085f565b8282815181106110d8576110d76140a4565b5b602002602001018181525050806110ee906140fe565b905061108e565b508091505092915050565b5f805f80600a5f8681526020019081526020015f20549350600b5f8681526020019081526020015f205492508260646111399190614145565b9150600c5f8681526020019081526020015f205f3373ffffffffffffffffffffffffffffffffffffffff1673ffffffffffffffffffffffffffffffffffffffff1681526020019081526020015f205f9054906101000a900460ff1690509193509193565b6111a561251a565b5f60075f8381526020019081526020015f205f0154036111fa576040517f08c379a00000000000000000000000000000000000000000000000000000000081526004016111f190613ea3565b60405180910390fd5b60075f8281526020019081526020015f206005015f9054906101000a900460ff1661125a576040517f08c379a0000000000000000000000000000000000000000000000000000000008152600401611251906141c2565b60405180910390fd5b6064600b5f8381526020019081526020015f2054106112ae576040517f08c379a00000000000000000000000000000000000000000000000000000000081526004016112a59061422a565b60405180910390fd5b600c5f8281526020019081526020015f205f3373ffffffffffffffffffffffffffffffffffffffff1673ffffffffffffffffffffffffffffffffffffffff1681526020019081526020015f205f9054906101000a900460ff1615611347576040517f08c379a000000000000000000000000000000000000000000000000000000000815260040161133e90614292565b60405180910390fd5b600a5f8281526020019081526020015f205434101561139b576040517f08c379a0000000000000000000000000000000000000000000000000000000008152600401611392906142fa565b60405180910390fd5b5f73ffffffffffffffffffffffffffffffffffffffff16600d5f9054906101000a900473ffffffffffffffffffffffffffffffffffffffff1673ffffffffffffffffffffffffffffffffffffffff160361142a576040517f08c379a000000000000000000000000000000000000000000000000000000000815260040161142190614362565b60405180910390fd5b61144d611435611879565b3383600160405180602001604052805f815250612560565b600b5f8281526020019081526020015f205f81548092919061146e906140fe565b91905055506001600c5f8381526020019081526020015f205f3373ffffffffffffffffffffffffffffffffffffffff1673ffffffffffffffffffffffffffffffffffffffff1681526020019081526020015f205f6101000a81548160ff0219169083151502179055503460075f8381526020019081526020015f206004015f8282546114fa9190614380565b92505081905550600d5f9054906101000a900473ffffffffffffffffffffffffffffffffffffffff1673ffffffffffffffffffffffffffffffffffffffff1663bd4ebf3734836040518363ffffffff1660e01b815260040161155c9190613235565b5f604051808303818588803b158015611573575f80fd5b505af1158015611585573d5f803e3d5ffd5b50505050503373ffffffffffffffffffffffffffffffffffffffff1660075f8381526020019081526020015f2060010154827f60db2bf03fd9f4e87e2d9ef602ee7d8b1efa9ce455ff4e9ccfa368103e839c7860075f8681526020019081526020015f206002016005546040516115fd929190614446565b60405180910390a461160d612666565b50565b61161861246d565b6116215f612670565b565b60095f3373ffffffffffffffffffffffffffffffffffffffff1673ffffffffffffffffffffffffffffffffffffffff1681526020019081526020015f205f9054906101000a900460ff16806116aa575061167b611879565b73ffffffffffffffffffffffffffffffffffffffff163373ffffffffffffffffffffffffffffffffffffffff16145b6116e9576040517f08c379a00000000000000000000000000000000000000000000000000000000081526004016116e090613ff7565b60405180910390fd5b5f60075f8581526020019081526020015f205f01540361173e576040517f08c379a000000000000000000000000000000000000000000000000000000000815260040161173590613ea3565b60405180910390fd5b60075f8481526020019081526020015f206005015f9054906101000a900460ff161561179f576040517f08c379a0000000000000000000000000000000000000000000000000000000008152600401611796906144be565b60405180910390fd5b818160075f8681526020019081526020015f2060020191826117c2929190614668565b50827f2d110d4cf9628fa16ea3a89dd2a90b2f02a22722619bdbd7099db538289974f883836040516117f5929190614761565b60405180910390a2505050565b61180a61246d565b5f60075f8481526020019081526020015f205f01540361185f576040517f08c379a000000000000000000000000000000000000000000000000000000000815260040161185690613ea3565b60405180910390fd5b80600a5f8481526020019081526020015f20819055505050565b5f60035f9054906101000a900473ffffffffffffffffffffffffffffffffffffffff16905090565b600b602052805f5260405f205f915090505481565b6118c86118c1612372565b8383612733565b5050565b5f60085f8381526020019081526020015f20549050919050565b5f60075f8781526020019081526020015f205f01541461193b576040517f08c379a0000000000000000000000000000000000000000000000000000000008152600401611932906147cd565b60405180910390fd5b5f60085f8681526020019081526020015f20541461198e576040517f08c379a00000000000000000000000000000000000000000000000000000000081526004016119859061485b565b60405180910390fd5b5f83839050116119d3576040517f08c379a00000000000000000000000000000000000000000000000000000000081526004016119ca906148c3565b60405180910390fd5b5f8111611a15576040517f08c379a0000000000000000000000000000000000000000000000000000000008152600401611a0c9061492b565b60405180910390fd5b5f3411611a57576040517f08c379a0000000000000000000000000000000000000000000000000000000008152600401611a4e90614993565b60405180910390fd5b6040518060c0016040528086815260200185815260200184848080601f0160208091040260200160405190810160405280939291908181526020018383808284375f81840152601f19601f8201169050808301925050505050505081526020017392ae87507658451736821bffa913bac0e184d4e273ffffffffffffffffffffffffffffffffffffffff1681526020015f81526020015f151581525060075f8781526020019081526020015f205f820151815f0155602082015181600101556040820151816002019081611b2b91906149b1565b506060820151816003015f6101000a81548173ffffffffffffffffffffffffffffffffffffffff021916908373ffffffffffffffffffffffffffffffffffffffff1602179055506080820151816004015560a0820151816005015f6101000a81548160ff0219169083151502179055509050508460085f8681526020019081526020015f208190555060055f815480929190611bc6906140fe565b919050555060055460065f8781526020019081526020015f2081905550611c04611bee611879565b868360405180602001604052805f81525061289c565b3460075f8781526020019081526020015f206004015f828254611c279190614380565b925050819055503373ffffffffffffffffffffffffffffffffffffffff1684867f60db2bf03fd9f4e87e2d9ef602ee7d8b1efa9ce455ff4e9ccfa368103e839c788686600554604051611c7c93929190614a80565b60405180910390a45050505050565b6009602052805f5260405f205f915054906101000a900460ff1681565b6008602052805f5260405f205f915090505481565b600d5f9054906101000a900473ffffffffffffffffffffffffffffffffffffffff1681565b60095f3373ffffffffffffffffffffffffffffffffffffffff1673ffffffffffffffffffffffffffffffffffffffff1681526020019081526020015f205f9054906101000a900460ff1680611d695750611d3a611879565b73ffffffffffffffffffffffffffffffffffffffff163373ffffffffffffffffffffffffffffffffffffffff16145b611da8576040517f08c379a0000000000000000000000000000000000000000000000000000000008152600401611d9f90613ff7565b60405180910390fd5b5f60075f8481526020019081526020015f205f015403611dfd576040517f08c379a0000000000000000000000000000000000000000000000000000000008152600401611df490613ea3565b60405180910390fd5b5f8111611e3f576040517f08c379a0000000000000000000000000000000000000000000000000000000008152600401611e3690614afa565b60405180910390fd5b8060075f8481526020019081526020015f206004015f828254611e629190614380565b925050819055505050565b6007602052805f5260405f205f91509050805f015490806001015490806002018054611e9890613eee565b80601f0160208091040260200160405190810160405280929190818152602001828054611ec490613eee565b8015611f0f5780601f10611ee657610100808354040283529160200191611f0f565b820191905f5260205f20905b815481529060010190602001808311611ef257829003601f168201915b505050505090806003015f9054906101000a900473ffffffffffffffffffffffffffffffffffffffff1690806004015490806005015f9054906101000a900460ff16905086565b60095f3373ffffffffffffffffffffffffffffffffffffffff1673ffffffffffffffffffffffffffffffffffffffff1681526020019081526020015f205f9054906101000a900460ff1680611fdd5750611fae611879565b73ffffffffffffffffffffffffffffffffffffffff163373ffffffffffffffffffffffffffffffffffffffff16145b61201c576040517f08c379a000000000000000000000000000000000000000000000000000000000815260040161201390613ff7565b60405180910390fd5b5f60075f8481526020019081526020015f205f015403612071576040517f08c379a000000000000000000000000000000000000000000000000000000000815260040161206890613ea3565b60405180910390fd5b60075f8381526020019081526020015f206005015f9054906101000a900460ff166120d1576040517f08c379a00000000000000000000000000000000000000000000000000000000081526004016120c8906141c2565b60405180910390fd5b6120eb83838360405180602001604052805f81525061289c565b505050565b5f60015f8473ffffffffffffffffffffffffffffffffffffffff1673ffffffffffffffffffffffffffffffffffffffff1681526020019081526020015f205f8373ffffffffffffffffffffffffffffffffffffffff1673ffffffffffffffffffffffffffffffffffffffff1681526020019081526020015f205f9054906101000a900460ff16905092915050565b61218661246d565b8060095f8473ffffffffffffffffffffffffffffffffffffffff1673ffffffffffffffffffffffffffffffffffffffff1681526020019081526020015f205f6101000a81548160ff0219169083151502179055505050565b5f6121e7612372565b90508073ffffffffffffffffffffffffffffffffffffffff168673ffffffffffffffffffffffffffffffffffffffff161415801561222c575061222a86826120f0565b155b156122705780866040517fe237d922000000000000000000000000000000000000000000000000000000008152600401612267929190613f1e565b60405180910390fd5b61227d8686868686612560565b505050505050565b61228d61246d565b5f73ffffffffffffffffffffffffffffffffffffffff168173ffffffffffffffffffffffffffffffffffffffff16036122fd575f6040517f1e4fbdf70000000000000000000000000000000000000000000000000000000081526004016122f49190613b59565b60405180910390fd5b61230681612670565b50565b5f7f01ffc9a7000000000000000000000000000000000000000000000000000000007bffffffffffffffffffffffffffffffffffffffffffffffffffffffff1916827bffffffffffffffffffffffffffffffffffffffffffffffffffffffff1916149050919050565b5f33905090565b5f73ffffffffffffffffffffffffffffffffffffffff168473ffffffffffffffffffffffffffffffffffffffff16036123e9575f6040517f57f447ce0000000000000000000000000000000000000000000000000000000081526004016123e09190613b59565b60405180910390fd5b5f73ffffffffffffffffffffffffffffffffffffffff168573ffffffffffffffffffffffffffffffffffffffff1603612459575f6040517f01a835140000000000000000000000000000000000000000000000000000000081526004016124509190613b59565b60405180910390fd5b6124668585858585612931565b5050505050565b612475612372565b73ffffffffffffffffffffffffffffffffffffffff16612493611879565b73ffffffffffffffffffffffffffffffffffffffff16146124f2576124b6612372565b6040517f118cdaa70000000000000000000000000000000000000000000000000000000081526004016124e99190613b59565b60405180910390fd5b565b5f60208202602084010151905092915050565b5f60208202602084010151905092915050565b600260045403612556576040517f3ee5aeb500000000000000000000000000000000000000000000000000000000815260040160405180910390fd5b6002600481905550565b5f73ffffffffffffffffffffffffffffffffffffffff168473ffffffffffffffffffffffffffffffffffffffff16036125d0575f6040517f57f447ce0000000000000000000000000000000000000000000000000000000081526004016125c79190613b59565b60405180910390fd5b5f73ffffffffffffffffffffffffffffffffffffffff168573ffffffffffffffffffffffffffffffffffffffff1603612640575f6040517f01a835140000000000000000000000000000000000000000000000000000000081526004016126379190613b59565b60405180910390fd5b5f8061264c85856129dd565b9150915061265d8787848487612931565b50505050505050565b6001600481905550565b5f60035f9054906101000a900473ffffffffffffffffffffffffffffffffffffffff1690508160035f6101000a81548173ffffffffffffffffffffffffffffffffffffffff021916908373ffffffffffffffffffffffffffffffffffffffff1602179055508173ffffffffffffffffffffffffffffffffffffffff168173ffffffffffffffffffffffffffffffffffffffff167f8be0079c531659141344cd1fd0a4f28419497f9722a3daafe3b4186f6b6457e060405160405180910390a35050565b5f73ffffffffffffffffffffffffffffffffffffffff168273ffffffffffffffffffffffffffffffffffffffff16036127a3575f6040517fced3e10000000000000000000000000000000000000000000000000000000000815260040161279a9190613b59565b60405180910390fd5b8060015f8573ffffffffffffffffffffffffffffffffffffffff1673ffffffffffffffffffffffffffffffffffffffff1681526020019081526020015f205f8473ffffffffffffffffffffffffffffffffffffffff1673ffffffffffffffffffffffffffffffffffffffff1681526020019081526020015f205f6101000a81548160ff0219169083151502179055508173ffffffffffffffffffffffffffffffffffffffff168373ffffffffffffffffffffffffffffffffffffffff167f17307eab39ab6107e8899845ad3d59bd9653f200f220920489ca2b5937696c318360405161288f91906132e8565b60405180910390a3505050565b5f73ffffffffffffffffffffffffffffffffffffffff168473ffffffffffffffffffffffffffffffffffffffff160361290c575f6040517f57f447ce0000000000000000000000000000000000000000000000000000000081526004016129039190613b59565b60405180910390fd5b5f8061291885856129dd565b915091506129295f87848487612931565b505050505050565b61293d85858585612a0d565b5f73ffffffffffffffffffffffffffffffffffffffff168473ffffffffffffffffffffffffffffffffffffffff16146129d6575f612979612372565b905060018451036129c5575f6129985f8661250790919063ffffffff16565b90505f6129ae5f8661250790919063ffffffff16565b90506129be838989858589612da3565b50506129d4565b6129d3818787878787612f52565b5b505b5050505050565b60608060405191506001825283602083015260408201905060018152826020820152604081016040529250929050565b8051825114612a5757815181516040517f5b059991000000000000000000000000000000000000000000000000000000008152600401612a4e92919061407d565b60405180910390fd5b5f612a60612372565b90505f5b8351811015612c62575f612a81828661250790919063ffffffff16565b90505f612a97838661250790919063ffffffff16565b90505f73ffffffffffffffffffffffffffffffffffffffff168873ffffffffffffffffffffffffffffffffffffffff1614612bba575f805f8481526020019081526020015f205f8a73ffffffffffffffffffffffffffffffffffffffff1673ffffffffffffffffffffffffffffffffffffffff1681526020019081526020015f2054905081811015612b6657888183856040517f03dee4c5000000000000000000000000000000000000000000000000000000008152600401612b5d9493929190614b18565b60405180910390fd5b8181035f808581526020019081526020015f205f8b73ffffffffffffffffffffffffffffffffffffffff1673ffffffffffffffffffffffffffffffffffffffff1681526020019081526020015f2081905550505b5f73ffffffffffffffffffffffffffffffffffffffff168773ffffffffffffffffffffffffffffffffffffffff1614612c4f57805f808481526020019081526020015f205f8973ffffffffffffffffffffffffffffffffffffffff1673ffffffffffffffffffffffffffffffffffffffff1681526020019081526020015f205f828254612c479190614380565b925050819055505b505080612c5b906140fe565b9050612a64565b506001835103612d1d575f612c805f8561250790919063ffffffff16565b90505f612c965f8561250790919063ffffffff16565b90508573ffffffffffffffffffffffffffffffffffffffff168773ffffffffffffffffffffffffffffffffffffffff168473ffffffffffffffffffffffffffffffffffffffff167fc3d58168c5ae7397731d063d5bbf3d657854427343f4c083240f7aacaa2d0f628585604051612d0e92919061407d565b60405180910390a45050612d9c565b8373ffffffffffffffffffffffffffffffffffffffff168573ffffffffffffffffffffffffffffffffffffffff168273ffffffffffffffffffffffffffffffffffffffff167f4a39dc06d4c0dbc64b70af90fd698a233a518aa5d07e595d983b8c0526c8f7fb8686604051612d93929190614b5b565b60405180910390a45b5050505050565b5f8473ffffffffffffffffffffffffffffffffffffffff163b1115612f4a578373ffffffffffffffffffffffffffffffffffffffff1663f23a6e6187878686866040518663ffffffff1660e01b8152600401612e03959493929190614be2565b6020604051808303815f875af1925050508015612e3e57506040513d601f19601f82011682018060405250810190612e3b9190614c4e565b60015b612ebf573d805f8114612e6c576040519150601f19603f3d011682016040523d82523d5f602084013e612e71565b606091505b505f815103612eb757846040517f57f447ce000000000000000000000000000000000000000000000000000000008152600401612eae9190613b59565b60405180910390fd5b805160208201fd5b63f23a6e6160e01b7bffffffffffffffffffffffffffffffffffffffffffffffffffffffff1916817bffffffffffffffffffffffffffffffffffffffffffffffffffffffff191614612f4857846040517f57f447ce000000000000000000000000000000000000000000000000000000008152600401612f3f9190613b59565b60405180910390fd5b505b505050505050565b5f8473ffffffffffffffffffffffffffffffffffffffff163b11156130f9578373ffffffffffffffffffffffffffffffffffffffff1663bc197c8187878686866040518663ffffffff1660e01b8152600401612fb2959493929190614c79565b6020604051808303815f875af1925050508015612fed57506040513d601f19601f82011682018060405250810190612fea9190614c4e565b60015b61306e573d805f811461301b576040519150601f19603f3d011682016040523d82523d5f602084013e613020565b606091505b505f81510361306657846040517f57f447ce00000000000000000000000000000000000000000000000000000000815260040161305d9190613b59565b60405180910390fd5b805160208201fd5b63bc197c8160e01b7bffffffffffffffffffffffffffffffffffffffffffffffffffffffff1916817bffffffffffffffffffffffffffffffffffffffffffffffffffffffff1916146130f757846040517f57f447ce0000000000000000000000000000000000000000000000000000000081526004016130ee9190613b59565b60405180910390fd5b505b505050505050565b6040518060c001604052805f81526020015f8152602001606081526020015f73ffffffffffffffffffffffffffffffffffffffff1681526020015f81526020015f151581525090565b5f604051905090565b5f80fd5b5f80fd5b5f73ffffffffffffffffffffffffffffffffffffffff82169050919050565b5f6131848261315b565b9050919050565b6131948161317a565b811461319e575f80fd5b50565b5f813590506131af8161318b565b92915050565b5f819050919050565b6131c7816131b5565b81146131d1575f80fd5b50565b5f813590506131e2816131be565b92915050565b5f80604083850312156131fe576131fd613153565b5b5f61320b858286016131a1565b925050602061321c858286016131d4565b9150509250929050565b61322f816131b5565b82525050565b5f6020820190506132485f830184613226565b92915050565b5f7fffffffff0000000000000000000000000000000000000000000000000000000082169050919050565b6132828161324e565b811461328c575f80fd5b50565b5f8135905061329d81613279565b92915050565b5f602082840312156132b8576132b7613153565b5b5f6132c58482850161328f565b91505092915050565b5f8115159050919050565b6132e2816132ce565b82525050565b5f6020820190506132fb5f8301846132d9565b92915050565b5f806040838503121561331757613316613153565b5b5f613324858286016131d4565b9250506020613335858286016131a1565b9150509250929050565b5f6020828403121561335457613353613153565b5b5f613361848285016131d4565b91505092915050565b5f81519050919050565b5f82825260208201905092915050565b5f5b838110156133a1578082015181840152602081019050613386565b5f8484015250505050565b5f601f19601f8301169050919050565b5f6133c68261336a565b6133d08185613374565b93506133e0818560208601613384565b6133e9816133ac565b840191505092915050565b5f6020820190508181035f83015261340c81846133bc565b905092915050565b5f80fd5b7f4e487b71000000000000000000000000000000000000000000000000000000005f52604160045260245ffd5b61344e826133ac565b810181811067ffffffffffffffff8211171561346d5761346c613418565b5b80604052505050565b5f61347f61314a565b905061348b8282613445565b919050565b5f67ffffffffffffffff8211156134aa576134a9613418565b5b602082029050602081019050919050565b5f80fd5b5f6134d16134cc84613490565b613476565b905080838252602082019050602084028301858111156134f4576134f36134bb565b5b835b8181101561351d578061350988826131d4565b8452602084019350506020810190506134f6565b5050509392505050565b5f82601f83011261353b5761353a613414565b5b813561354b8482602086016134bf565b91505092915050565b5f80fd5b5f67ffffffffffffffff82111561357257613571613418565b5b61357b826133ac565b9050602081019050919050565b828183375f83830152505050565b5f6135a86135a384613558565b613476565b9050828152602081018484840111156135c4576135c3613554565b5b6135cf848285613588565b509392505050565b5f82601f8301126135eb576135ea613414565b5b81356135fb848260208601613596565b91505092915050565b5f805f805f60a0868803121561361d5761361c613153565b5b5f61362a888289016131a1565b955050602061363b888289016131a1565b945050604086013567ffffffffffffffff81111561365c5761365b613157565b5b61366888828901613527565b935050606086013567ffffffffffffffff81111561368957613688613157565b5b61369588828901613527565b925050608086013567ffffffffffffffff8111156136b6576136b5613157565b5b6136c2888289016135d7565b9150509295509295909350565b6136d8816131b5565b82525050565b5f82825260208201905092915050565b5f6136f88261336a565b61370281856136de565b9350613712818560208601613384565b61371b816133ac565b840191505092915050565b61372f8161317a565b82525050565b61373e816132ce565b82525050565b5f60c083015f8301516137595f8601826136cf565b50602083015161376c60208601826136cf565b506040830151848203604086015261378482826136ee565b91505060608301516137996060860182613726565b5060808301516137ac60808601826136cf565b5060a08301516137bf60a0860182613735565b508091505092915050565b5f6020820190508181035f8301526137e28184613744565b905092915050565b5f602082840312156137ff576137fe613153565b5b5f61380c848285016131a1565b91505092915050565b5f67ffffffffffffffff82111561382f5761382e613418565b5b602082029050602081019050919050565b5f61385261384d84613815565b613476565b90508083825260208201905060208402830185811115613875576138746134bb565b5b835b8181101561389e578061388a88826131a1565b845260208401935050602081019050613877565b5050509392505050565b5f82601f8301126138bc576138bb613414565b5b81356138cc848260208601613840565b91505092915050565b5f80604083850312156138eb576138ea613153565b5b5f83013567ffffffffffffffff81111561390857613907613157565b5b613914858286016138a8565b925050602083013567ffffffffffffffff81111561393557613934613157565b5b61394185828601613527565b9150509250929050565b5f81519050919050565b5f82825260208201905092915050565b5f819050602082019050919050565b5f61397f83836136cf565b60208301905092915050565b5f602082019050919050565b5f6139a18261394b565b6139ab8185613955565b93506139b683613965565b805f5b838110156139e65781516139cd8882613974565b97506139d88361398b565b9250506001810190506139b9565b5085935050505092915050565b5f6020820190508181035f830152613a0b8184613997565b905092915050565b5f608082019050613a265f830187613226565b613a336020830186613226565b613a406040830185613226565b613a4d60608301846132d9565b95945050505050565b5f80fd5b5f8083601f840112613a6f57613a6e613414565b5b8235905067ffffffffffffffff811115613a8c57613a8b613a56565b5b602083019150836001820283011115613aa857613aa76134bb565b5b9250929050565b5f805f60408486031215613ac657613ac5613153565b5b5f613ad3868287016131d4565b935050602084013567ffffffffffffffff811115613af457613af3613157565b5b613b0086828701613a5a565b92509250509250925092565b5f8060408385031215613b2257613b21613153565b5b5f613b2f858286016131d4565b9250506020613b40858286016131d4565b9150509250929050565b613b538161317a565b82525050565b5f602082019050613b6c5f830184613b4a565b92915050565b613b7b816132ce565b8114613b85575f80fd5b50565b5f81359050613b9681613b72565b92915050565b5f8060408385031215613bb257613bb1613153565b5b5f613bbf858286016131a1565b9250506020613bd085828601613b88565b9150509250929050565b5f805f805f60808688031215613bf357613bf2613153565b5b5f613c00888289016131d4565b9550506020613c11888289016131d4565b945050604086013567ffffffffffffffff811115613c3257613c31613157565b5b613c3e88828901613a5a565b93509350506060613c51888289016131d4565b9150509295509295909350565b5f819050919050565b5f613c81613c7c613c778461315b565b613c5e565b61315b565b9050919050565b5f613c9282613c67565b9050919050565b5f613ca382613c88565b9050919050565b613cb381613c99565b82525050565b5f602082019050613ccc5f830184613caa565b92915050565b5f60c082019050613ce55f830189613226565b613cf26020830188613226565b8181036040830152613d0481876133bc565b9050613d136060830186613b4a565b613d206080830185613226565b613d2d60a08301846132d9565b979650505050505050565b5f805f60608486031215613d4f57613d4e613153565b5b5f613d5c868287016131a1565b9350506020613d6d868287016131d4565b9250506040613d7e868287016131d4565b9150509250925092565b5f8060408385031215613d9e57613d9d613153565b5b5f613dab858286016131a1565b9250506020613dbc858286016131a1565b9150509250929050565b5f805f805f60a08688031215613ddf57613dde613153565b5b5f613dec888289016131a1565b9550506020613dfd888289016131a1565b9450506040613e0e888289016131d4565b9350506060613e1f888289016131d4565b925050608086013567ffffffffffffffff811115613e4057613e3f613157565b5b613e4c888289016135d7565b9150509295509295909350565b7f43616e76617320646f6573206e6f7420657869737400000000000000000000005f82015250565b5f613e8d601583613374565b9150613e9882613e59565b602082019050919050565b5f6020820190508181035f830152613eba81613e81565b9050919050565b7f4e487b71000000000000000000000000000000000000000000000000000000005f52602260045260245ffd5b5f6002820490506001821680613f0557607f821691505b602082108103613f1857613f17613ec1565b5b50919050565b5f604082019050613f315f830185613b4a565b613f3e6020830184613b4a565b9392505050565b7f496e76616c696420726576656e756520636f6e747261637400000000000000005f82015250565b5f613f79601883613374565b9150613f8482613f45565b602082019050919050565b5f6020820190508181035f830152613fa681613f6d565b9050919050565b7f4e6f7420617574686f72697a65640000000000000000000000000000000000005f82015250565b5f613fe1600e83613374565b9150613fec82613fad565b602082019050919050565b5f6020820190508181035f83015261400e81613fd5565b9050919050565b7f43616e76617320616c72656164792066696e616c697a656400000000000000005f82015250565b5f614049601883613374565b915061405482614015565b602082019050919050565b5f6020820190508181035f8301526140768161403d565b9050919050565b5f6040820190506140905f830185613226565b61409d6020830184613226565b9392505050565b7f4e487b71000000000000000000000000000000000000000000000000000000005f52603260045260245ffd5b7f4e487b71000000000000000000000000000000000000000000000000000000005f52601160045260245ffd5b5f614108826131b5565b91507fffffffffffffffffffffffffffffffffffffffffffffffffffffffffffffffff820361413a576141396140d1565b5b600182019050919050565b5f61414f826131b5565b915061415a836131b5565b9250828203905081811115614172576141716140d1565b5b92915050565b7f43616e766173206e6f742066696e616c697a65640000000000000000000000005f82015250565b5f6141ac601483613374565b91506141b782614178565b602082019050919050565b5f6020820190508181035f8301526141d9816141a0565b9050919050565b7f536f6c64206f75740000000000000000000000000000000000000000000000005f82015250565b5f614214600883613374565b915061421f826141e0565b602082019050919050565b5f6020820190508181035f83015261424181614208565b9050919050565b7f416c7265616479206d696e7465640000000000000000000000000000000000005f82015250565b5f61427c600e83613374565b915061428782614248565b602082019050919050565b5f6020820190508181035f8301526142a981614270565b9050919050565b7f496e73756666696369656e74207061796d656e740000000000000000000000005f82015250565b5f6142e4601483613374565b91506142ef826142b0565b602082019050919050565b5f6020820190508181035f830152614311816142d8565b9050919050565b7f526576656e756520636f6e7472616374206e6f742073657400000000000000005f82015250565b5f61434c601883613374565b915061435782614318565b602082019050919050565b5f6020820190508181035f83015261437981614340565b9050919050565b5f61438a826131b5565b9150614395836131b5565b92508282019050808211156143ad576143ac6140d1565b5b92915050565b5f819050815f5260205f209050919050565b5f81546143d181613eee565b6143db8186613374565b9450600182165f81146143f5576001811461440b5761443d565b60ff19831686528115156020028601935061443d565b614414856143b3565b5f5b8381101561443557815481890152600182019150602081019050614416565b808801955050505b50505092915050565b5f6040820190508181035f83015261445e81856143c5565b905061446d6020830184613226565b9392505050565b7f43616e6e6f74207570646174652066696e616c697a65642063616e76617300005f82015250565b5f6144a8601e83613374565b91506144b382614474565b602082019050919050565b5f6020820190508181035f8301526144d58161449c565b9050919050565b5f82905092915050565b5f6020601f8301049050919050565b5f82821b905092915050565b5f600883026145307fffffffffffffffffffffffffffffffffffffffffffffffffffffffffffffffff826144f5565b61453a86836144f5565b95508019841693508086168417925050509392505050565b5f61456c614567614562846131b5565b613c5e565b6131b5565b9050919050565b5f819050919050565b61458583614552565b61459961459182614573565b848454614501565b825550505050565b5f90565b6145ad6145a1565b6145b881848461457c565b505050565b5b818110156145db576145d05f826145a5565b6001810190506145be565b5050565b601f821115614620576145f1816143b3565b6145fa846144e6565b81016020851015614609578190505b61461d614615856144e6565b8301826145bd565b50505b505050565b5f82821c905092915050565b5f6146405f1984600802614625565b1980831691505092915050565b5f6146588383614631565b9150826002028217905092915050565b61467283836144dc565b67ffffffffffffffff81111561468b5761468a613418565b5b6146958254613eee565b6146a08282856145df565b5f601f8311600181146146cd575f84156146bb578287013590505b6146c5858261464d565b86555061472c565b601f1984166146db866143b3565b5f5b82811015614702578489013582556001820191506020850194506020810190506146dd565b8683101561471f578489013561471b601f891682614631565b8355505b6001600288020188555050505b50505050505050565b5f6147408385613374565b935061474d838584613588565b614756836133ac565b840190509392505050565b5f6020820190508181035f83015261477a818486614735565b90509392505050565b7f43616e76617320616c72656164792065786973747300000000000000000000005f82015250565b5f6147b7601583613374565b91506147c282614783565b602082019050919050565b5f6020820190508181035f8301526147e4816147ab565b9050919050565b7f43616e76617320666f7220746869732064617920616c726561647920657869735f8201527f7473000000000000000000000000000000000000000000000000000000000000602082015250565b5f614845602283613374565b9150614850826147eb565b604082019050919050565b5f6020820190508181035f83015261487281614839565b9050919050565b7f496e76616c6964204950465320555249000000000000000000000000000000005f82015250565b5f6148ad601083613374565b91506148b882614879565b602082019050919050565b5f6020820190508181035f8301526148da816148a1565b9050919050565b7f537570706c79206d7573742062652067726561746572207468616e207a65726f5f82015250565b5f614915602083613374565b9150614920826148e1565b602082019050919050565b5f6020820190508181035f83015261494281614909565b9050919050565b7f5061796d656e74207265717569726564000000000000000000000000000000005f82015250565b5f61497d601083613374565b915061498882614949565b602082019050919050565b5f6020820190508181035f8301526149aa81614971565b9050919050565b6149ba8261336a565b67ffffffffffffffff8111156149d3576149d2613418565b5b6149dd8254613eee565b6149e88282856145df565b5f60209050601f831160018114614a19575f8415614a07578287015190505b614a11858261464d565b865550614a78565b601f198416614a27866143b3565b5f5b82811015614a4e57848901518255600182019150602085019450602081019050614a29565b86831015614a6b5784890151614a67601f891682614631565b8355505b6001600288020188555050505b505050505050565b5f6040820190508181035f830152614a99818587614735565b9050614aa86020830184613226565b949350505050565b7f416d6f756e74206d7573742062652067726561746572207468616e207a65726f5f82015250565b5f614ae4602083613374565b9150614aef82614ab0565b602082019050919050565b5f6020820190508181035f830152614b1181614ad8565b9050919050565b5f608082019050614b2b5f830187613b4a565b614b386020830186613226565b614b456040830185613226565b614b526060830184613226565b95945050505050565b5f6040820190508181035f830152614b738185613997565b90508181036020830152614b878184613997565b90509392505050565b5f81519050919050565b5f82825260208201905092915050565b5f614bb482614b90565b614bbe8185614b9a565b9350614bce818560208601613384565b614bd7816133ac565b840191505092915050565b5f60a082019050614bf55f830188613b4a565b614c026020830187613b4a565b614c0f6040830186613226565b614c1c6060830185613226565b8181036080830152614c2e8184614baa565b90509695505050505050565b5f81519050614c4881613279565b92915050565b5f60208284031215614c6357614c62613153565b5b5f614c7084828501614c3a565b91505092915050565b5f60a082019050614c8c5f830188613b4a565b614c996020830187613b4a565b8181036040830152614cab8186613997565b90508181036060830152614cbf8185613997565b90508181036080830152614cd38184614baa565b9050969550505050505056fea26469706673582212209d2f07968c940a863f736a9ffc967b290f4da090bf441114c3f067882624633664736f6c63430008140033",
  "linkReferences": {},
  "deployedLinkReferences": {},
  "immutableReferences": {},
  "inputSourceName": "project/contract/core/FemCanvas.sol",
  "buildInfoId": "solc-0_8_20-488d64900cb6b250b6e40c2064f13eb139a2e578"
}