{
  "_format": "hh3-artifact-1",
  "contractName": "SignatureHelper",
  "sourceName": "contract/core/SignatureHelper.sol",
  "abi": [
    {
      "inputs": [
        {
          "internalType": "address",
          "name": "contractAddress",
          "type": "address"
        }
      ],
      "name": "getDomainSeparator",
      "outputs": [
        {
          "internalType": "bytes32",
          "name": "",
          "type": "bytes32"
        }
      ],
      "stateMutability": "view",
      "type": "function"
    },
    {
      "inputs": [
        {
          "internalType": "address",
          "name": "buyer",
          "type": "address"
        },
        {
          "internalType": "uint256",
          "name": "colorId",
          "type": "uint256"
        },
        {
          "internalType": "string",
          "name": "metadataURI",
          "type": "string"
        },
        {
          "internalType": "uint256",
          "name": "deadline",
          "type": "uint256"
        }
      ],
      "name": "getStructHash",
      "outputs": [
        {
          "internalType": "bytes32",
          "name": "",
          "type": "bytes32"
        }
      ],
      "stateMutability": "pure",
      "type": "function"
    },
    {
      "inputs": [
        {
          "internalType": "address",
          "name": "contractAddress",
          "type": "address"
        },
        {
          "internalType": "address",
          "name": "buyer",
          "type": "address"
        },
        {
          "internalType": "uint256",
          "name": "colorId",
          "type": "uint256"
        },
        {
          "internalType": "string",
          "name": "metadataURI",
          "type": "string"
        },
        {
          "internalType": "uint256",
          "name": "deadline",
          "type": "uint256"
        }
      ],
      "name": "getTypedDataHash",
      "outputs": [
        {
          "internalType": "bytes32",
          "name": "",
          "type": "bytes32"
        }
      ],
      "stateMutability": "view",
      "type": "function"
    }
  ],
  "bytecode": "0x608060405234801561000f575f80fd5b5061073e8061001d5f395ff3fe608060405234801561000f575f80fd5b506004361061003f575f3560e01c8063157e6052146100435780639950d05c14610073578063a83e6cef146100a3575b5f80fd5b61005d6004803603810190610058919061042f565b6100d3565b60405161006a91906104da565b60405180910390f35b61008d600480360381019061008891906104f3565b610125565b60405161009a91906104da565b60405180910390f35b6100bd60048036038101906100b8919061051e565b6101f4565b6040516100ca91906104da565b60405180910390f35b5f806100de87610125565b90505f6100ed878787876101f4565b90508181604051602001610102929190610612565b604051602081830303815290604052805190602001209250505095945050505050565b5f7f8b73c3c69bb8fe3d512ecc4cf759cc79239f7b179b0ffacaa9a75d522b39400f6040518060400160405280600981526020017f46656d436f6c6f72730000000000000000000000000000000000000000000000815250805190602001206040518060400160405280600181526020017f31000000000000000000000000000000000000000000000000000000000000008152508051906020012046856040516020016101d7959493929190610666565b604051602081830303815290604052805190602001209050919050565b5f7f8b8233098aacd373d07cfb9da0602e3efc50fce36c044103f3708b7a6301594085858580519060200120856040516020016102359594939291906106b7565b604051602081830303815290604052805190602001209050949350505050565b5f604051905090565b5f80fd5b5f80fd5b5f73ffffffffffffffffffffffffffffffffffffffff82169050919050565b5f61028f82610266565b9050919050565b61029f81610285565b81146102a9575f80fd5b50565b5f813590506102ba81610296565b92915050565b5f819050919050565b6102d2816102c0565b81146102dc575f80fd5b50565b5f813590506102ed816102c9565b92915050565b5f80fd5b5f80fd5b5f601f19601f8301169050919050565b7f4e487b71000000000000000000000000000000000000000000000000000000005f52604160045260245ffd5b610341826102fb565b810181811067ffffffffffffffff821117156103605761035f61030b565b5b80604052505050565b5f610372610255565b905061037e8282610338565b919050565b5f67ffffffffffffffff82111561039d5761039c61030b565b5b6103a6826102fb565b9050602081019050919050565b828183375f83830152505050565b5f6103d36103ce84610383565b610369565b9050828152602081018484840111156103ef576103ee6102f7565b5b6103fa8482856103b3565b509392505050565b5f82601f830112610416576104156102f3565b5b81356104268482602086016103c1565b91505092915050565b5f805f805f60a086880312156104485761044761025e565b5b5f610455888289016102ac565b9550506020610466888289016102ac565b9450506040610477888289016102df565b935050606086013567ffffffffffffffff81111561049857610497610262565b5b6104a488828901610402565b92505060806104b5888289016102df565b9150509295509295909350565b5f819050919050565b6104d4816104c2565b82525050565b5f6020820190506104ed5f8301846104cb565b92915050565b5f602082840312156105085761050761025e565b5b5f610515848285016102ac565b91505092915050565b5f805f80608085870312156105365761053561025e565b5b5f610543878288016102ac565b9450506020610554878288016102df565b935050604085013567ffffffffffffffff81111561057557610574610262565b5b61058187828801610402565b9250506060610592878288016102df565b91505092959194509250565b5f81905092915050565b7f19010000000000000000000000000000000000000000000000000000000000005f82015250565b5f6105dc60028361059e565b91506105e7826105a8565b600282019050919050565b5f819050919050565b61060c610607826104c2565b6105f2565b82525050565b5f61061c826105d0565b915061062882856105fb565b60208201915061063882846105fb565b6020820191508190509392505050565b610651816102c0565b82525050565b61066081610285565b82525050565b5f60a0820190506106795f8301886104cb565b61068660208301876104cb565b61069360408301866104cb565b6106a06060830185610648565b6106ad6080830184610657565b9695505050505050565b5f60a0820190506106ca5f8301886104cb565b6106d76020830187610657565b6106e46040830186610648565b6106f160608301856104cb565b6106fe6080830184610648565b969550505050505056fea264697066735822122080836f1e3b51f969d2bdf7059b433d0d09dffbb6c9649f5e2049c211f53df25464736f6c63430008140033",
  "linkReferences": {},
  "deployedLinkReferences": {},
  "immutableReferences": {},
  "inputSourceName": "project/contract/core/SignatureHelper.sol",
  "buildInfoId": "solc-0_8_20-488d64900cb6b250b6e40c2064f13eb139a2e578"
}