{
  "_format": "hh3-artifact-1",
  "contractName": "FemColors",
  "sourceName": "contract/core/FemColors.sol",
  "abi": [
    {
      "inputs": [],
      "stateMutability": "nonpayable",
      "type": "constructor"
    },
    {
      "inputs": [],
      "name": "ECDSAInvalidSignature",
      "type": "error"
    },
    {
      "inputs": [
        {
          "internalType": "uint256",
          "name": "length",
          "type": "uint256"
        }
      ],
      "name": "ECDSAInvalidSignatureLength",
      "type": "error"
    },
    {
      "inputs": [
        {
          "internalType": "bytes32",
          "name": "s",
          "type": "bytes32"
        }
      ],
      "name": "ECDSAInvalidSignatureS",
      "type": "error"
    },
    {
      "inputs": [
        {
          "internalType": "address",
          "name": "sender",
          "type": "address"
        },
        {
          "internalType": "uint256",
          "name": "tokenId",
          "type": "uint256"
        },
        {
          "internalType": "address",
          "name": "owner",
          "type": "address"
        }
      ],
      "name": "ERC721IncorrectOwner",
      "type": "error"
    },
    {
      "inputs": [
        {
          "internalType": "address",
          "name": "operator",
          "type": "address"
        },
        {
          "internalType": "uint256",
          "name": "tokenId",
          "type": "uint256"
        }
      ],
      "name": "ERC721InsufficientApproval",
      "type": "error"
    },
    {
      "inputs": [
        {
          "internalType": "address",
          "name": "approver",
          "type": "address"
        }
      ],
      "name": "ERC721InvalidApprover",
      "type": "error"
    },
    {
      "inputs": [
        {
          "internalType": "address",
          "name": "operator",
          "type": "address"
        }
      ],
      "name": "ERC721InvalidOperator",
      "type": "error"
    },
    {
      "inputs": [
        {
          "internalType": "address",
          "name": "owner",
          "type": "address"
        }
      ],
      "name": "ERC721InvalidOwner",
      "type": "error"
    },
    {
      "inputs": [
        {
          "internalType": "address",
          "name": "receiver",
          "type": "address"
        }
      ],
      "name": "ERC721InvalidReceiver",
      "type": "error"
    },
    {
      "inputs": [
        {
          "internalType": "address",
          "name": "sender",
          "type": "address"
        }
      ],
      "name": "ERC721InvalidSender",
      "type": "error"
    },
    {
      "inputs": [
        {
          "internalType": "uint256",
          "name": "tokenId",
          "type": "uint256"
        }
      ],
      "name": "ERC721NonexistentToken",
      "type": "error"
    },
    {
      "inputs": [],
      "name": "InvalidShortString",
      "type": "error"
    },
    {
      "inputs": [
        {
          "internalType": "address",
          "name": "owner",
          "type": "address"
        }
      ],
      "name": "OwnableInvalidOwner",
      "type": "error"
    },
    {
      "inputs": [
        {
          "internalType": "address",
          "name": "account",
          "type": "address"
        }
      ],
      "name": "OwnableUnauthorizedAccount",
      "type": "error"
    },
    {
      "inputs": [
        {
          "internalType": "string",
          "name": "str",
          "type": "string"
        }
      ],
      "name": "StringTooLong",
      "type": "error"
    },
    {
      "anonymous": false,
      "inputs": [
        {
          "indexed": true,
          "internalType": "address",
          "name": "owner",
          "type": "address"
        },
        {
          "indexed": true,
          "internalType": "address",
          "name": "approved",
          "type": "address"
        },
        {
          "indexed": true,
          "internalType": "uint256",
          "name": "tokenId",
          "type": "uint256"
        }
      ],
      "name": "Approval",
      "type": "event"
    },
    {
      "anonymous": false,
      "inputs": [
        {
          "indexed": true,
          "internalType": "address",
          "name": "owner",
          "type": "address"
        },
        {
          "indexed": true,
          "internalType": "address",
          "name": "operator",
          "type": "address"
        },
        {
          "indexed": false,
          "internalType": "bool",
          "name": "approved",
          "type": "bool"
        }
      ],
      "name": "ApprovalForAll",
      "type": "event"
    },
    {
      "anonymous": false,
      "inputs": [
        {
          "indexed": false,
          "internalType": "uint256",
          "name": "_fromTokenId",
          "type": "uint256"
        },
        {
          "indexed": false,
          "internalType": "uint256",
          "name": "_toTokenId",
          "type": "uint256"
        }
      ],
      "name": "BatchMetadataUpdate",
      "type": "event"
    },
    {
      "anonymous": false,
      "inputs": [
        {
          "indexed": true,
          "internalType": "address",
          "name": "user",
          "type": "address"
        },
        {
          "indexed": false,
          "internalType": "uint256",
          "name": "tokenId",
          "type": "uint256"
        },
        {
          "indexed": false,
          "internalType": "string",
          "name": "colorCode",
          "type": "string"
        }
      ],
      "name": "ColorMinted",
      "type": "event"
    },
    {
      "anonymous": false,
      "inputs": [
        {
          "indexed": true,
          "internalType": "address",
          "name": "from",
          "type": "address"
        },
        {
          "indexed": true,
          "internalType": "address",
          "name": "to",
          "type": "address"
        },
        {
          "indexed": false,
          "internalType": "uint256",
          "name": "tokenId",
          "type": "uint256"
        },
        {
          "indexed": false,
          "internalType": "uint256",
          "name": "price",
          "type": "uint256"
        }
      ],
      "name": "ColorTransferred",
      "type": "event"
    },
    {
      "anonymous": false,
      "inputs": [],
      "name": "EIP712DomainChanged",
      "type": "event"
    },
    {
      "anonymous": false,
      "inputs": [
        {
          "indexed": false,
          "internalType": "uint256",
          "name": "_tokenId",
          "type": "uint256"
        }
      ],
      "name": "MetadataUpdate",
      "type": "event"
    },
    {
      "anonymous": false,
      "inputs": [
        {
          "indexed": true,
          "internalType": "address",
          "name": "previousOwner",
          "type": "address"
        },
        {
          "indexed": true,
          "internalType": "address",
          "name": "newOwner",
          "type": "address"
        }
      ],
      "name": "OwnershipTransferred",
      "type": "event"
    },
    {
      "anonymous": false,
      "inputs": [
        {
          "indexed": true,
          "internalType": "address",
          "name": "from",
          "type": "address"
        },
        {
          "indexed": true,
          "internalType": "address",
          "name": "to",
          "type": "address"
        },
        {
          "indexed": true,
          "internalType": "uint256",
          "name": "tokenId",
          "type": "uint256"
        }
      ],
      "name": "Transfer",
      "type": "event"
    },
    {
      "inputs": [
        {
          "internalType": "address",
          "name": "to",
          "type": "address"
        },
        {
          "internalType": "uint256",
          "name": "tokenId",
          "type": "uint256"
        }
      ],
      "name": "approve",
      "outputs": [],
      "stateMutability": "nonpayable",
      "type": "function"
    },
    {
      "inputs": [
        {
          "internalType": "address",
          "name": "owner",
          "type": "address"
        }
      ],
      "name": "balanceOf",
      "outputs": [
        {
          "internalType": "uint256",
          "name": "",
          "type": "uint256"
        }
      ],
      "stateMutability": "view",
      "type": "function"
    },
    {
      "inputs": [
        {
          "internalType": "uint256",
          "name": "colorId",
          "type": "uint256"
        },
        {
          "internalType": "string",
          "name": "metadataURI",
          "type": "string"
        }
      ],
      "name": "buyColor",
      "outputs": [],
      "stateMutability": "payable",
      "type": "function"
    },
    {
      "inputs": [
        {
          "internalType": "address",
          "name": "buyer",
          "type": "address"
        },
        {
          "internalType": "uint256",
          "name": "colorId",
          "type": "uint256"
        },
        {
          "internalType": "string",
          "name": "metadataURI",
          "type": "string"
        },
        {
          "internalType": "uint256",
          "name": "deadline",
          "type": "uint256"
        },
        {
          "internalType": "uint8",
          "name": "v",
          "type": "uint8"
        },
        {
          "internalType": "bytes32",
          "name": "r",
          "type": "bytes32"
        },
        {
          "internalType": "bytes32",
          "name": "s",
          "type": "bytes32"
        }
      ],
      "name": "buyColorWithSignature",
      "outputs": [],
      "stateMutability": "payable",
      "type": "function"
    },
    {
      "inputs": [],
      "name": "colorsCounter",
      "outputs": [
        {
          "internalType": "uint256",
          "name": "",
          "type": "uint256"
        }
      ],
      "stateMutability": "view",
      "type": "function"
    },
    {
      "inputs": [
        {
          "internalType": "address",
          "name": "owner",
          "type": "address"
        }
      ],
      "name": "colorsOfUser",
      "outputs": [
        {
          "internalType": "uint256[]",
          "name": "",
          "type": "uint256[]"
        }
      ],
      "stateMutability": "view",
      "type": "function"
    },
    {
      "inputs": [],
      "name": "eip712Domain",
      "outputs": [
        {
          "internalType": "bytes1",
          "name": "fields",
          "type": "bytes1"
        },
        {
          "internalType": "string",
          "name": "name",
          "type": "string"
        },
        {
          "internalType": "string",
          "name": "version",
          "type": "string"
        },
        {
          "internalType": "uint256",
          "name": "chainId",
          "type": "uint256"
        },
        {
          "internalType": "address",
          "name": "verifyingContract",
          "type": "address"
        },
        {
          "internalType": "bytes32",
          "name": "salt",
          "type": "bytes32"
        },
        {
          "internalType": "uint256[]",
          "name": "extensions",
          "type": "uint256[]"
        }
      ],
      "stateMutability": "view",
      "type": "function"
    },
    {
      "inputs": [
        {
          "internalType": "uint256",
          "name": "tokenId",
          "type": "uint256"
        }
      ],
      "name": "getApproved",
      "outputs": [
        {
          "internalType": "address",
          "name": "",
          "type": "address"
        }
      ],
      "stateMutability": "view",
      "type": "function"
    },
    {
      "inputs": [
        {
          "internalType": "uint256",
          "name": "colorId",
          "type": "uint256"
        }
      ],
      "name": "getPrice",
      "outputs": [
        {
          "internalType": "uint256",
          "name": "",
          "type": "uint256"
        }
      ],
      "stateMutability": "view",
      "type": "function"
    },
    {
      "inputs": [
        {
          "internalType": "address",
          "name": "owner",
          "type": "address"
        },
        {
          "internalType": "address",
          "name": "operator",
          "type": "address"
        }
      ],
      "name": "isApprovedForAll",
      "outputs": [
        {
          "internalType": "bool",
          "name": "",
          "type": "bool"
        }
      ],
      "stateMutability": "view",
      "type": "function"
    },
    {
      "inputs": [],
      "name": "name",
      "outputs": [
        {
          "internalType": "string",
          "name": "",
          "type": "string"
        }
      ],
      "stateMutability": "view",
      "type": "function"
    },
    {
      "inputs": [
        {
          "internalType": "address",
          "name": "",
          "type": "address"
        }
      ],
      "name": "nonces",
      "outputs": [
        {
          "internalType": "uint256",
          "name": "",
          "type": "uint256"
        }
      ],
      "stateMutability": "view",
      "type": "function"
    },
    {
      "inputs": [],
      "name": "owner",
      "outputs": [
        {
          "internalType": "address",
          "name": "",
          "type": "address"
        }
      ],
      "stateMutability": "view",
      "type": "function"
    },
    {
      "inputs": [
        {
          "internalType": "uint256",
          "name": "tokenId",
          "type": "uint256"
        }
      ],
      "name": "ownerOf",
      "outputs": [
        {
          "internalType": "address",
          "name": "",
          "type": "address"
        }
      ],
      "stateMutability": "view",
      "type": "function"
    },
    {
      "inputs": [],
      "name": "renounceOwnership",
      "outputs": [],
      "stateMutability": "nonpayable",
      "type": "function"
    },
    {
      "inputs": [
        {
          "internalType": "address",
          "name": "to",
          "type": "address"
        },
        {
          "internalType": "uint256",
          "name": "colorId",
          "type": "uint256"
        },
        {
          "internalType": "string",
          "name": "metadataURI",
          "type": "string"
        }
      ],
      "name": "rewardColor",
      "outputs": [],
      "stateMutability": "nonpayable",
      "type": "function"
    },
    {
      "inputs": [
        {
          "internalType": "address",
          "name": "from",
          "type": "address"
        },
        {
          "internalType": "address",
          "name": "to",
          "type": "address"
        },
        {
          "internalType": "uint256",
          "name": "tokenId",
          "type": "uint256"
        }
      ],
      "name": "safeTransferFrom",
      "outputs": [],
      "stateMutability": "nonpayable",
      "type": "function"
    },
    {
      "inputs": [
        {
          "internalType": "address",
          "name": "from",
          "type": "address"
        },
        {
          "internalType": "address",
          "name": "to",
          "type": "address"
        },
        {
          "internalType": "uint256",
          "name": "tokenId",
          "type": "uint256"
        },
        {
          "internalType": "bytes",
          "name": "data",
          "type": "bytes"
        }
      ],
      "name": "safeTransferFrom",
      "outputs": [],
      "stateMutability": "nonpayable",
      "type": "function"
    },
    {
      "inputs": [
        {
          "internalType": "address",
          "name": "operator",
          "type": "address"
        },
        {
          "internalType": "bool",
          "name": "approved",
          "type": "bool"
        }
      ],
      "name": "setApprovalForAll",
      "outputs": [],
      "stateMutability": "nonpayable",
      "type": "function"
    },
    {
      "inputs": [
        {
          "internalType": "uint256",
          "name": "colorId",
          "type": "uint256"
        },
        {
          "internalType": "uint256",
          "name": "price",
          "type": "uint256"
        }
      ],
      "name": "setPrice",
      "outputs": [],
      "stateMutability": "nonpayable",
      "type": "function"
    },
    {
      "inputs": [
        {
          "internalType": "uint256",
          "name": "colorId",
          "type": "uint256"
        },
        {
          "internalType": "string",
          "name": "newURI",
          "type": "string"
        }
      ],
      "name": "setURI",
      "outputs": [],
      "stateMutability": "nonpayable",
      "type": "function"
    },
    {
      "inputs": [
        {
          "internalType": "bytes4",
          "name": "interfaceId",
          "type": "bytes4"
        }
      ],
      "name": "supportsInterface",
      "outputs": [
        {
          "internalType": "bool",
          "name": "",
          "type": "bool"
        }
      ],
      "stateMutability": "view",
      "type": "function"
    },
    {
      "inputs": [],
      "name": "symbol",
      "outputs": [
        {
          "internalType": "string",
          "name": "",
          "type": "string"
        }
      ],
      "stateMutability": "view",
      "type": "function"
    },
    {
      "inputs": [
        {
          "internalType": "uint256",
          "name": "tokenId",
          "type": "uint256"
        }
      ],
      "name": "tokenURI",
      "outputs": [
        {
          "internalType": "string",
          "name": "",
          "type": "string"
        }
      ],
      "stateMutability": "view",
      "type": "function"
    },
    {
      "inputs": [
        {
          "internalType": "address",
          "name": "to",
          "type": "address"
        },
        {
          "internalType": "uint256",
          "name": "colorId",
          "type": "uint256"
        }
      ],
      "name": "transferColor",
      "outputs": [],
      "stateMutability": "payable",
      "type": "function"
    },
    {
      "inputs": [
        {
          "internalType": "address",
          "name": "from",
          "type": "address"
        },
        {
          "internalType": "address",
          "name": "to",
          "type": "address"
        },
        {
          "internalType": "uint256",
          "name": "tokenId",
          "type": "uint256"
        }
      ],
      "name": "transferFrom",
      "outputs": [],
      "stateMutability": "nonpayable",
      "type": "function"
    },
    {
      "inputs": [
        {
          "internalType": "address",
          "name": "newOwner",
          "type": "address"
        }
      ],
      "name": "transferOwnership",
      "outputs": [],
      "stateMutability": "nonpayable",
      "type": "function"
    }
  ],
  "bytecode": "0x61016060405234801562000011575f80fd5b506040518060400160405280600981526020017f46656d436f6c6f727300000000000000000000000000000000000000000000008152506040518060400160405280600181526020017f3100000000000000000000000000000000000000000000000000000000000000815250336040518060400160405280600981526020017f46656d436f6c6f727300000000000000000000000000000000000000000000008152506040518060400160405280600281526020017f4643000000000000000000000000000000000000000000000000000000000000815250815f9081620000fb919062000696565b5080600190816200010d919062000696565b5050505f73ffffffffffffffffffffffffffffffffffffffff168173ffffffffffffffffffffffffffffffffffffffff160362000183575f6040517f1e4fbdf70000000000000000000000000000000000000000000000000000000081526004016200017a9190620007bd565b60405180910390fd5b62000194816200024b60201b60201c565b50620001ab6008836200030e60201b90919060201c565b6101208181525050620001c96009826200030e60201b90919060201c565b6101408181525050818051906020012060e08181525050808051906020012061010081815250504660a08181525050620002086200036360201b60201c565b608081815250503073ffffffffffffffffffffffffffffffffffffffff1660c08173ffffffffffffffffffffffffffffffffffffffff16815250505050620009a8565b5f60075f9054906101000a900473ffffffffffffffffffffffffffffffffffffffff1690508160075f6101000a81548173ffffffffffffffffffffffffffffffffffffffff021916908373ffffffffffffffffffffffffffffffffffffffff1602179055508173ffffffffffffffffffffffffffffffffffffffff168173ffffffffffffffffffffffffffffffffffffffff167f8be0079c531659141344cd1fd0a4f28419497f9722a3daafe3b4186f6b6457e060405160405180910390a35050565b5f60208351101562000333576200032b83620003bf60201b60201c565b90506200035d565b8262000345836200042960201b60201c565b5f01908162000355919062000696565b5060ff5f1b90505b92915050565b5f7f8b73c3c69bb8fe3d512ecc4cf759cc79239f7b179b0ffacaa9a75d522b39400f60e051610100514630604051602001620003a495949392919062000803565b60405160208183030381529060405280519060200120905090565b5f80829050601f815111156200040e57826040517f305a27a9000000000000000000000000000000000000000000000000000000008152600401620004059190620008e8565b60405180910390fd5b8051816200041c9062000939565b5f1c175f1b915050919050565b5f819050919050565b5f81519050919050565b7f4e487b71000000000000000000000000000000000000000000000000000000005f52604160045260245ffd5b7f4e487b71000000000000000000000000000000000000000000000000000000005f52602260045260245ffd5b5f6002820490506001821680620004ae57607f821691505b602082108103620004c457620004c362000469565b5b50919050565b5f819050815f5260205f209050919050565b5f6020601f8301049050919050565b5f82821b905092915050565b5f60088302620005287fffffffffffffffffffffffffffffffffffffffffffffffffffffffffffffffff82620004eb565b620005348683620004eb565b95508019841693508086168417925050509392505050565b5f819050919050565b5f819050919050565b5f6200057e6200057862000572846200054c565b62000555565b6200054c565b9050919050565b5f819050919050565b62000599836200055e565b620005b1620005a88262000585565b848454620004f7565b825550505050565b5f90565b620005c7620005b9565b620005d48184846200058e565b505050565b5b81811015620005fb57620005ef5f82620005bd565b600181019050620005da565b5050565b601f8211156200064a576200061481620004ca565b6200061f84620004dc565b810160208510156200062f578190505b620006476200063e85620004dc565b830182620005d9565b50505b505050565b5f82821c905092915050565b5f6200066c5f19846008026200064f565b1980831691505092915050565b5f6200068683836200065b565b9150826002028217905092915050565b620006a18262000432565b67ffffffffffffffff811115620006bd57620006bc6200043c565b5b620006c9825462000496565b620006d6828285620005ff565b5f60209050601f8311600181146200070c575f8415620006f7578287015190505b62000703858262000679565b86555062000772565b601f1984166200071c86620004ca565b5f5b8281101562000745578489015182556001820191506020850194506020810190506200071e565b8683101562000765578489015162000761601f8916826200065b565b8355505b6001600288020188555050505b505050505050565b5f73ffffffffffffffffffffffffffffffffffffffff82169050919050565b5f620007a5826200077a565b9050919050565b620007b78162000799565b82525050565b5f602082019050620007d25f830184620007ac565b92915050565b5f819050919050565b620007ec81620007d8565b82525050565b620007fd816200054c565b82525050565b5f60a082019050620008185f830188620007e1565b620008276020830187620007e1565b620008366040830186620007e1565b620008456060830185620007f2565b620008546080830184620007ac565b9695505050505050565b5f82825260208201905092915050565b5f5b838110156200088d57808201518184015260208101905062000870565b5f8484015250505050565b5f601f19601f8301169050919050565b5f620008b48262000432565b620008c081856200085e565b9350620008d28185602086016200086e565b620008dd8162000898565b840191505092915050565b5f6020820190508181035f830152620009028184620008a8565b905092915050565b5f81519050919050565b5f819050602082019050919050565b5f620009308251620007d8565b80915050919050565b5f62000945826200090a565b82620009518462000914565b90506200095e8162000923565b92506020821015620009a1576200099c7fffffffffffffffffffffffffffffffffffffffffffffffffffffffffffffffff83602003600802620004eb565b831692505b5050919050565b60805160a05160c05160e051610100516101205161014051614613620009fa5f395f611f7c01525f611f4101525f612e2e01525f612e0d01525f61280c01525f61286201525f61288b01526146135ff3fe60806040526004361061019b575f3560e01c806381bb2158116100eb578063b88d4fde11610089578063e757223011610063578063e75722301461059d578063e985e9c5146105d9578063f2fde38b14610615578063f7d975771461063d5761019b565b8063b88d4fde1461051d578063bc52a38014610545578063c87b56dd146105615761019b565b80638da5cb5b116100c55780638da5cb5b1461046557806395d89b411461048f578063a22cb465146104b9578063a3aad128146104e15761019b565b806381bb2158146103e357806384b0196e1461040d578063862440e21461043d5761019b565b806342842e0e11610158578063715018a611610132578063715018a61461034d57806375804781146103635780637ecebe001461037f57806380b35a25146103bb5761019b565b806342842e0e146102ad5780636352211e146102d557806370a08231146103115761019b565b806301ffc9a71461019f57806306fdde03146101db578063081812fc14610205578063095ea7b31461024157806323b872dd146102695780633470e12114610291575b5f80fd5b3480156101aa575f80fd5b506101c560048036038101906101c0919061314d565b610665565b6040516101d29190613192565b60405180910390f35b3480156101e6575f80fd5b506101ef6106c5565b6040516101fc9190613235565b60405180910390f35b348015610210575f80fd5b5061022b60048036038101906102269190613288565b610754565b60405161023891906132f2565b60405180910390f35b34801561024c575f80fd5b5061026760048036038101906102629190613335565b61076f565b005b348015610274575f80fd5b5061028f600480360381019061028a9190613373565b610785565b005b6102ab60048036038101906102a69190613424565b610884565b005b3480156102b8575f80fd5b506102d360048036038101906102ce9190613373565b610b49565b005b3480156102e0575f80fd5b506102fb60048036038101906102f69190613288565b610b68565b60405161030891906132f2565b60405180910390f35b34801561031c575f80fd5b5061033760048036038101906103329190613481565b610b79565b60405161034491906134bb565b60405180910390f35b348015610358575f80fd5b50610361610c2f565b005b61037d60048036038101906103789190613335565b610c42565b005b34801561038a575f80fd5b506103a560048036038101906103a09190613481565b610d99565b6040516103b291906134bb565b60405180910390f35b3480156103c6575f80fd5b506103e160048036038101906103dc91906135fc565b610dae565b005b3480156103ee575f80fd5b506103f7610f94565b60405161040491906134bb565b60405180910390f35b348015610418575f80fd5b50610421610f9a565b6040516104349796959493929190613771565b60405180910390f35b348015610448575f80fd5b50610463600480360381019061045e91906137f3565b61103f565b005b348015610470575f80fd5b50610479611055565b60405161048691906132f2565b60405180910390f35b34801561049a575f80fd5b506104a361107d565b6040516104b09190613235565b60405180910390f35b3480156104c4575f80fd5b506104df60048036038101906104da9190613877565b61110d565b005b3480156104ec575f80fd5b5061050760048036038101906105029190613481565b611123565b60405161051491906138b5565b60405180910390f35b348015610528575f80fd5b50610543600480360381019061053e9190613973565b6111b6565b005b61055f600480360381019061055a9190613a53565b6111db565b005b34801561056c575f80fd5b5061058760048036038101906105829190613288565b6115dd565b6040516105949190613235565b60405180910390f35b3480156105a8575f80fd5b506105c360048036038101906105be9190613288565b6115ef565b6040516105d091906134bb565b60405180910390f35b3480156105e4575f80fd5b506105ff60048036038101906105fa9190613b10565b611609565b60405161060c9190613192565b60405180910390f35b348015610620575f80fd5b5061063b60048036038101906106369190613481565b611697565b005b348015610648575f80fd5b50610663600480360381019061065e9190613b4e565b61171b565b005b5f634906490660e01b7bffffffffffffffffffffffffffffffffffffffffffffffffffffffff1916827bffffffffffffffffffffffffffffffffffffffffffffffffffffffff191614806106be57506106bd8261173d565b5b9050919050565b60605f80546106d390613bb9565b80601f01602080910402602001604051908101604052809291908181526020018280546106ff90613bb9565b801561074a5780601f106107215761010080835404028352916020019161074a565b820191905f5260205f20905b81548152906001019060200180831161072d57829003601f168201915b5050505050905090565b5f61075e8261181e565b50610768826118a4565b9050919050565b610781828261077c6118dd565b6118e4565b5050565b5f73ffffffffffffffffffffffffffffffffffffffff168273ffffffffffffffffffffffffffffffffffffffff16036107f5575f6040517f64a0ae920000000000000000000000000000000000000000000000000000000081526004016107ec91906132f2565b60405180910390fd5b5f61080883836108036118dd565b6118f6565b90508373ffffffffffffffffffffffffffffffffffffffff168173ffffffffffffffffffffffffffffffffffffffff161461087e578382826040517f64283d7b00000000000000000000000000000000000000000000000000000000815260040161087593929190613be9565b60405180910390fd5b50505050565b5f73ffffffffffffffffffffffffffffffffffffffff16600e5f8581526020019081526020015f205f9054906101000a900473ffffffffffffffffffffffffffffffffffffffff1673ffffffffffffffffffffffffffffffffffffffff1603610922576040517f08c379a000000000000000000000000000000000000000000000000000000000815260040161091990613c68565b60405180910390fd5b5f600b5f8581526020019081526020015f205490508034101561097a576040517f08c379a000000000000000000000000000000000000000000000000000000000815260040161097190613cd0565b60405180910390fd5b6109843385611b01565b6109d18484848080601f0160208091040260200160405190810160405280939291908181526020018383808284375f81840152601f19601f82011690508083019250505050505050611b1e565b33600e5f8681526020019081526020015f205f6101000a81548173ffffffffffffffffffffffffffffffffffffffff021916908373ffffffffffffffffffffffffffffffffffffffff160217905550600c5f3373ffffffffffffffffffffffffffffffffffffffff1673ffffffffffffffffffffffffffffffffffffffff1681526020019081526020015f2084908060018154018082558091505060019003905f5260205f20015f9091909190915055600a5f815480929190610a9390613d1b565b9190505550610aa0611055565b73ffffffffffffffffffffffffffffffffffffffff166108fc3490811502906040515f60405180830381858888f19350505050158015610ae2573d5f803e3d5ffd5b503373ffffffffffffffffffffffffffffffffffffffff167f10622e0f3dc349c51b538c74a496824512bc7f4decf5e476c8625c311f28398f85600d5f8881526020019081526020015f20604051610b3b929190613df5565b60405180910390a250505050565b610b6383838360405180602001604052805f8152506111b6565b505050565b5f610b7282611b78565b9050919050565b5f8073ffffffffffffffffffffffffffffffffffffffff168273ffffffffffffffffffffffffffffffffffffffff1603610bea575f6040517f89c62b64000000000000000000000000000000000000000000000000000000008152600401610be191906132f2565b60405180910390fd5b60035f8373ffffffffffffffffffffffffffffffffffffffff1673ffffffffffffffffffffffffffffffffffffffff1681526020019081526020015f20549050919050565b610c37611b89565b610c405f611c10565b565b3373ffffffffffffffffffffffffffffffffffffffff16610c6282610b68565b73ffffffffffffffffffffffffffffffffffffffff1614610cb8576040517f08c379a0000000000000000000000000000000000000000000000000000000008152600401610caf90613e6d565b60405180910390fd5b610cc3338383611cd3565b610ccd3382611e3b565b600c5f8373ffffffffffffffffffffffffffffffffffffffff1673ffffffffffffffffffffffffffffffffffffffff1681526020019081526020015f2081908060018154018082558091505060019003905f5260205f20015f90919091909150558173ffffffffffffffffffffffffffffffffffffffff163373ffffffffffffffffffffffffffffffffffffffff167fd780e2df2675d6ceff3db9f959ce9048c7182099009876ee38cbc88f8ac428da8334604051610d8d929190613e8b565b60405180910390a35050565b600f602052805f5260405f205f915090505481565b610db6611b89565b5f73ffffffffffffffffffffffffffffffffffffffff16600e5f8481526020019081526020015f205f9054906101000a900473ffffffffffffffffffffffffffffffffffffffff1673ffffffffffffffffffffffffffffffffffffffff1614610e54576040517f08c379a0000000000000000000000000000000000000000000000000000000008152600401610e4b90613efc565b60405180910390fd5b610e5e8383611b01565b610e688282611b1e565b600c5f8473ffffffffffffffffffffffffffffffffffffffff1673ffffffffffffffffffffffffffffffffffffffff1681526020019081526020015f2082908060018154018082558091505060019003905f5260205f20015f909190919091505582600e5f8481526020019081526020015f205f6101000a81548173ffffffffffffffffffffffffffffffffffffffff021916908373ffffffffffffffffffffffffffffffffffffffff160217905550600a5f815480929190610f2a90613d1b565b91905055508273ffffffffffffffffffffffffffffffffffffffff167f10622e0f3dc349c51b538c74a496824512bc7f4decf5e476c8625c311f28398f83600d5f8681526020019081526020015f20604051610f87929190613df5565b60405180910390a2505050565b600a5481565b5f6060805f805f6060610fab611f38565b610fb3611f73565b46305f801b5f67ffffffffffffffff811115610fd257610fd16134d8565b5b6040519080825280602002602001820160405280156110005781602001602082028036833780820191505090505b507f0f00000000000000000000000000000000000000000000000000000000000000959493929190965096509650965096509650965090919293949596565b611047611b89565b6110518282611b1e565b5050565b5f60075f9054906101000a900473ffffffffffffffffffffffffffffffffffffffff16905090565b60606001805461108c90613bb9565b80601f01602080910402602001604051908101604052809291908181526020018280546110b890613bb9565b80156111035780601f106110da57610100808354040283529160200191611103565b820191905f5260205f20905b8154815290600101906020018083116110e657829003601f168201915b5050505050905090565b61111f6111186118dd565b8383611fae565b5050565b6060600c5f8373ffffffffffffffffffffffffffffffffffffffff1673ffffffffffffffffffffffffffffffffffffffff1681526020019081526020015f208054806020026020016040519081016040528092919081815260200182805480156111aa57602002820191905f5260205f20905b815481526020019060010190808311611196575b50505050509050919050565b6111c1848484610785565b6111d56111cc6118dd565b85858585612117565b50505050565b8342111561121e576040517f08c379a000000000000000000000000000000000000000000000000000000000815260040161121590613f64565b60405180910390fd5b5f73ffffffffffffffffffffffffffffffffffffffff16600e5f8981526020019081526020015f205f9054906101000a900473ffffffffffffffffffffffffffffffffffffffff1673ffffffffffffffffffffffffffffffffffffffff16036112bc576040517f08c379a00000000000000000000000000000000000000000000000000000000081526004016112b390613c68565b60405180910390fd5b5f600b5f8981526020019081526020015f2054905080341015611314576040517f08c379a000000000000000000000000000000000000000000000000000000000815260040161130b90613cd0565b60405180910390fd5b5f7f8b8233098aacd373d07cfb9da0602e3efc50fce36c044103f3708b7a630159408a8a8a8a604051611348929190613fb0565b604051809103902089604051602001611365959493929190613fc8565b6040516020818303038152906040528051906020012090505f611387826122c3565b90505f611396828888886122dc565b90508b73ffffffffffffffffffffffffffffffffffffffff168173ffffffffffffffffffffffffffffffffffffffff1614611406576040517f08c379a00000000000000000000000000000000000000000000000000000000081526004016113fd90614063565b60405180910390fd5b6114108c8c611b01565b61145d8b8b8b8080601f0160208091040260200160405190810160405280939291908181526020018383808284375f81840152601f19601f82011690508083019250505050505050611b1e565b8b600e5f8d81526020019081526020015f205f6101000a81548173ffffffffffffffffffffffffffffffffffffffff021916908373ffffffffffffffffffffffffffffffffffffffff160217905550600c5f8d73ffffffffffffffffffffffffffffffffffffffff1673ffffffffffffffffffffffffffffffffffffffff1681526020019081526020015f208b908060018154018082558091505060019003905f5260205f20015f9091909190915055600a5f81548092919061151f90613d1b565b919050555061152c611055565b73ffffffffffffffffffffffffffffffffffffffff166108fc3490811502906040515f60405180830381858888f1935050505015801561156e573d5f803e3d5ffd5b508b73ffffffffffffffffffffffffffffffffffffffff167f10622e0f3dc349c51b538c74a496824512bc7f4decf5e476c8625c311f28398f8c600d5f8f81526020019081526020015f206040516115c7929190613df5565b60405180910390a2505050505050505050505050565b60606115e88261230a565b9050919050565b5f600b5f8381526020019081526020015f20549050919050565b5f60055f8473ffffffffffffffffffffffffffffffffffffffff1673ffffffffffffffffffffffffffffffffffffffff1681526020019081526020015f205f8373ffffffffffffffffffffffffffffffffffffffff1673ffffffffffffffffffffffffffffffffffffffff1681526020019081526020015f205f9054906101000a900460ff16905092915050565b61169f611b89565b5f73ffffffffffffffffffffffffffffffffffffffff168173ffffffffffffffffffffffffffffffffffffffff160361170f575f6040517f1e4fbdf700000000000000000000000000000000000000000000000000000000815260040161170691906132f2565b60405180910390fd5b61171881611c10565b50565b611723611b89565b80600b5f8481526020019081526020015f20819055505050565b5f7f80ac58cd000000000000000000000000000000000000000000000000000000007bffffffffffffffffffffffffffffffffffffffffffffffffffffffff1916827bffffffffffffffffffffffffffffffffffffffffffffffffffffffff1916148061180757507f5b5e139f000000000000000000000000000000000000000000000000000000007bffffffffffffffffffffffffffffffffffffffffffffffffffffffff1916827bffffffffffffffffffffffffffffffffffffffffffffffffffffffff1916145b80611817575061181682612415565b5b9050919050565b5f806118298361247e565b90505f73ffffffffffffffffffffffffffffffffffffffff168173ffffffffffffffffffffffffffffffffffffffff160361189b57826040517f7e27328900000000000000000000000000000000000000000000000000000000815260040161189291906134bb565b60405180910390fd5b80915050919050565b5f60045f8381526020019081526020015f205f9054906101000a900473ffffffffffffffffffffffffffffffffffffffff169050919050565b5f33905090565b6118f183838360016124b7565b505050565b5f806119018461247e565b90505f73ffffffffffffffffffffffffffffffffffffffff168373ffffffffffffffffffffffffffffffffffffffff161461194257611941818486612676565b5b5f73ffffffffffffffffffffffffffffffffffffffff168173ffffffffffffffffffffffffffffffffffffffff16146119cd576119815f855f806124b7565b600160035f8373ffffffffffffffffffffffffffffffffffffffff1673ffffffffffffffffffffffffffffffffffffffff1681526020019081526020015f205f82825403925050819055505b5f73ffffffffffffffffffffffffffffffffffffffff168573ffffffffffffffffffffffffffffffffffffffff1614611a4c57600160035f8773ffffffffffffffffffffffffffffffffffffffff1673ffffffffffffffffffffffffffffffffffffffff1681526020019081526020015f205f82825401925050819055505b8460025f8681526020019081526020015f205f6101000a81548173ffffffffffffffffffffffffffffffffffffffff021916908373ffffffffffffffffffffffffffffffffffffffff160217905550838573ffffffffffffffffffffffffffffffffffffffff168273ffffffffffffffffffffffffffffffffffffffff167fddf252ad1be2c89b69c2b068fc378daa952ba7f163c4a11628f55a4df523b3ef60405160405180910390a4809150509392505050565b611b1a828260405180602001604052805f815250612739565b5050565b8060065f8481526020019081526020015f209081611b3c919061420c565b507ff8e1a15aba9398e019f0b49df1a4fde98ee17ae345cb5f6b5e2c27f5033e8ce782604051611b6c91906134bb565b60405180910390a15050565b5f611b828261181e565b9050919050565b611b916118dd565b73ffffffffffffffffffffffffffffffffffffffff16611baf611055565b73ffffffffffffffffffffffffffffffffffffffff1614611c0e57611bd26118dd565b6040517f118cdaa7000000000000000000000000000000000000000000000000000000008152600401611c0591906132f2565b60405180910390fd5b565b5f60075f9054906101000a900473ffffffffffffffffffffffffffffffffffffffff1690508160075f6101000a81548173ffffffffffffffffffffffffffffffffffffffff021916908373ffffffffffffffffffffffffffffffffffffffff1602179055508173ffffffffffffffffffffffffffffffffffffffff168173ffffffffffffffffffffffffffffffffffffffff167f8be0079c531659141344cd1fd0a4f28419497f9722a3daafe3b4186f6b6457e060405160405180910390a35050565b5f73ffffffffffffffffffffffffffffffffffffffff168273ffffffffffffffffffffffffffffffffffffffff1603611d43575f6040517f64a0ae92000000000000000000000000000000000000000000000000000000008152600401611d3a91906132f2565b60405180910390fd5b5f611d4f83835f6118f6565b90505f73ffffffffffffffffffffffffffffffffffffffff168173ffffffffffffffffffffffffffffffffffffffff1603611dc157816040517f7e273289000000000000000000000000000000000000000000000000000000008152600401611db891906134bb565b60405180910390fd5b8373ffffffffffffffffffffffffffffffffffffffff168173ffffffffffffffffffffffffffffffffffffffff1614611e35578382826040517f64283d7b000000000000000000000000000000000000000000000000000000008152600401611e2c93929190613be9565b60405180910390fd5b50505050565b5f600c5f8473ffffffffffffffffffffffffffffffffffffffff1673ffffffffffffffffffffffffffffffffffffffff1681526020019081526020015f2090505f5b8180549050811015611f325782828281548110611e9d57611e9c6142db565b5b905f5260205f20015403611f1f578160018380549050611ebd9190614308565b81548110611ece57611ecd6142db565b5b905f5260205f200154828281548110611eea57611ee96142db565b5b905f5260205f20018190555081805480611f0757611f0661433b565b5b600190038181905f5260205f20015f90559055611f32565b8080611f2a90613d1b565b915050611e7d565b50505050565b6060611f6e60087f000000000000000000000000000000000000000000000000000000000000000061275c90919063ffffffff16565b905090565b6060611fa960097f000000000000000000000000000000000000000000000000000000000000000061275c90919063ffffffff16565b905090565b5f73ffffffffffffffffffffffffffffffffffffffff168273ffffffffffffffffffffffffffffffffffffffff160361201e57816040517f5b08ba1800000000000000000000000000000000000000000000000000000000815260040161201591906132f2565b60405180910390fd5b8060055f8573ffffffffffffffffffffffffffffffffffffffff1673ffffffffffffffffffffffffffffffffffffffff1681526020019081526020015f205f8473ffffffffffffffffffffffffffffffffffffffff1673ffffffffffffffffffffffffffffffffffffffff1681526020019081526020015f205f6101000a81548160ff0219169083151502179055508173ffffffffffffffffffffffffffffffffffffffff168373ffffffffffffffffffffffffffffffffffffffff167f17307eab39ab6107e8899845ad3d59bd9653f200f220920489ca2b5937696c318360405161210a9190613192565b60405180910390a3505050565b5f8373ffffffffffffffffffffffffffffffffffffffff163b11156122bc578273ffffffffffffffffffffffffffffffffffffffff1663150b7a02868685856040518563ffffffff1660e01b815260040161217594939291906143ba565b6020604051808303815f875af19250505080156121b057506040513d601f19601f820116820180604052508101906121ad9190614418565b60015b612231573d805f81146121de576040519150601f19603f3d011682016040523d82523d5f602084013e6121e3565b606091505b505f81510361222957836040517f64a0ae9200000000000000000000000000000000000000000000000000000000815260040161222091906132f2565b60405180910390fd5b805160208201fd5b63150b7a0260e01b7bffffffffffffffffffffffffffffffffffffffffffffffffffffffff1916817bffffffffffffffffffffffffffffffffffffffffffffffffffffffff1916146122ba57836040517f64a0ae920000000000000000000000000000000000000000000000000000000081526004016122b191906132f2565b60405180910390fd5b505b5050505050565b5f6122d56122cf612809565b836128bf565b9050919050565b5f805f806122ec888888886128ff565b9250925092506122fc82826129e6565b829350505050949350505050565b60606123158261181e565b505f60065f8481526020019081526020015f20805461233390613bb9565b80601f016020809104026020016040519081016040528092919081815260200182805461235f90613bb9565b80156123aa5780601f10612381576101008083540402835291602001916123aa565b820191905f5260205f20905b81548152906001019060200180831161238d57829003601f168201915b505050505090505f6123ba612b48565b90505f8151036123ce578192505050612410565b5f825111156124025780826040516020016123ea92919061447d565b60405160208183030381529060405292505050612410565b61240b84612b5e565b925050505b919050565b5f7f01ffc9a7000000000000000000000000000000000000000000000000000000007bffffffffffffffffffffffffffffffffffffffffffffffffffffffff1916827bffffffffffffffffffffffffffffffffffffffffffffffffffffffff1916149050919050565b5f60025f8381526020019081526020015f205f9054906101000a900473ffffffffffffffffffffffffffffffffffffffff169050919050565b80806124ef57505f73ffffffffffffffffffffffffffffffffffffffff168273ffffffffffffffffffffffffffffffffffffffff1614155b15612621575f6124fe8461181e565b90505f73ffffffffffffffffffffffffffffffffffffffff168373ffffffffffffffffffffffffffffffffffffffff161415801561256857508273ffffffffffffffffffffffffffffffffffffffff168173ffffffffffffffffffffffffffffffffffffffff1614155b801561257b57506125798184611609565b155b156125bd57826040517fa9fbf51f0000000000000000000000000000000000000000000000000000000081526004016125b491906132f2565b60405180910390fd5b811561261f57838573ffffffffffffffffffffffffffffffffffffffff168273ffffffffffffffffffffffffffffffffffffffff167f8c5be1e5ebec7d5bd14f71427d1e84f3dd0314c0f7b2291e5b200ac8c7c3b92560405160405180910390a45b505b8360045f8581526020019081526020015f205f6101000a81548173ffffffffffffffffffffffffffffffffffffffff021916908373ffffffffffffffffffffffffffffffffffffffff16021790555050505050565b612681838383612bc4565b612734575f73ffffffffffffffffffffffffffffffffffffffff168373ffffffffffffffffffffffffffffffffffffffff16036126f557806040517f7e2732890000000000000000000000000000000000000000000000000000000081526004016126ec91906134bb565b60405180910390fd5b81816040517f177e802f00000000000000000000000000000000000000000000000000000000815260040161272b9291906144a0565b60405180910390fd5b505050565b6127438383612c84565b61275761274e6118dd565b5f858585612117565b505050565b606060ff5f1b83146127785761277183612d77565b9050612803565b81805461278490613bb9565b80601f01602080910402602001604051908101604052809291908181526020018280546127b090613bb9565b80156127fb5780601f106127d2576101008083540402835291602001916127fb565b820191905f5260205f20905b8154815290600101906020018083116127de57829003601f168201915b505050505090505b92915050565b5f7f000000000000000000000000000000000000000000000000000000000000000073ffffffffffffffffffffffffffffffffffffffff163073ffffffffffffffffffffffffffffffffffffffff1614801561288457507f000000000000000000000000000000000000000000000000000000000000000046145b156128b1577f000000000000000000000000000000000000000000000000000000000000000090506128bc565b6128b9612de9565b90505b90565b5f6040517f190100000000000000000000000000000000000000000000000000000000000081528360028201528260228201526042812091505092915050565b5f805f7f7fffffffffffffffffffffffffffffff5d576e7357a4501ddfe92f46681b20a0845f1c111561293b575f6003859250925092506129dc565b5f6001888888886040515f815260200160405260405161295e94939291906144d6565b6020604051602081039080840390855afa15801561297e573d5f803e3d5ffd5b5050506020604051035190505f73ffffffffffffffffffffffffffffffffffffffff168173ffffffffffffffffffffffffffffffffffffffff16036129cf575f60015f801b935093509350506129dc565b805f805f1b935093509350505b9450945094915050565b5f60038111156129f9576129f8614519565b5b826003811115612a0c57612a0b614519565b5b0315612b445760016003811115612a2657612a25614519565b5b826003811115612a3957612a38614519565b5b03612a70576040517ff645eedf00000000000000000000000000000000000000000000000000000000815260040160405180910390fd5b60026003811115612a8457612a83614519565b5b826003811115612a9757612a96614519565b5b03612adb57805f1c6040517ffce698f7000000000000000000000000000000000000000000000000000000008152600401612ad291906134bb565b60405180910390fd5b600380811115612aee57612aed614519565b5b826003811115612b0157612b00614519565b5b03612b4357806040517fd78bce0c000000000000000000000000000000000000000000000000000000008152600401612b3a9190614546565b60405180910390fd5b5b5050565b606060405180602001604052805f815250905090565b6060612b698261181e565b505f612b73612b48565b90505f815111612b915760405180602001604052805f815250612bbc565b80612b9b84612e7e565b604051602001612bac92919061447d565b6040516020818303038152906040525b915050919050565b5f8073ffffffffffffffffffffffffffffffffffffffff168373ffffffffffffffffffffffffffffffffffffffff1614158015612c7b57508273ffffffffffffffffffffffffffffffffffffffff168473ffffffffffffffffffffffffffffffffffffffff161480612c3c5750612c3b8484611609565b5b80612c7a57508273ffffffffffffffffffffffffffffffffffffffff16612c62836118a4565b73ffffffffffffffffffffffffffffffffffffffff16145b5b90509392505050565b5f73ffffffffffffffffffffffffffffffffffffffff168273ffffffffffffffffffffffffffffffffffffffff1603612cf4575f6040517f64a0ae92000000000000000000000000000000000000000000000000000000008152600401612ceb91906132f2565b60405180910390fd5b5f612d0083835f6118f6565b90505f73ffffffffffffffffffffffffffffffffffffffff168173ffffffffffffffffffffffffffffffffffffffff1614612d72575f6040517f73c6ac6e000000000000000000000000000000000000000000000000000000008152600401612d6991906132f2565b60405180910390fd5b505050565b60605f612d8383612f48565b90505f602067ffffffffffffffff811115612da157612da06134d8565b5b6040519080825280601f01601f191660200182016040528015612dd35781602001600182028036833780820191505090505b5090508181528360208201528092505050919050565b5f7f8b73c3c69bb8fe3d512ecc4cf759cc79239f7b179b0ffacaa9a75d522b39400f7f00000000000000000000000000000000000000000000000000000000000000007f00000000000000000000000000000000000000000000000000000000000000004630604051602001612e6395949392919061455f565b60405160208183030381529060405280519060200120905090565b60605f6001612e8c84612f96565b0190505f8167ffffffffffffffff811115612eaa57612ea96134d8565b5b6040519080825280601f01601f191660200182016040528015612edc5781602001600182028036833780820191505090505b5090505f82602083010190505b600115612f3d578080600190039150507f3031323334353637383961626364656600000000000000000000000000000000600a86061a8153600a8581612f3257612f316145b0565b5b0494505f8503612ee9575b819350505050919050565b5f8060ff835f1c169050601f811115612f8d576040517fb3512b0c00000000000000000000000000000000000000000000000000000000815260040160405180910390fd5b80915050919050565b5f805f90507a184f03e93ff9f4daa797ed6e38ed64bf6a1f0100000000000000008310612ff2577a184f03e93ff9f4daa797ed6e38ed64bf6a1f0100000000000000008381612fe857612fe76145b0565b5b0492506040810190505b6d04ee2d6d415b85acef8100000000831061302f576d04ee2d6d415b85acef81000000008381613025576130246145b0565b5b0492506020810190505b662386f26fc10000831061305e57662386f26fc100008381613054576130536145b0565b5b0492506010810190505b6305f5e1008310613087576305f5e100838161307d5761307c6145b0565b5b0492506008810190505b61271083106130ac5761271083816130a2576130a16145b0565b5b0492506004810190505b606483106130cf57606483816130c5576130c46145b0565b5b0492506002810190505b600a83106130de576001810190505b80915050919050565b5f604051905090565b5f80fd5b5f80fd5b5f7fffffffff0000000000000000000000000000000000000000000000000000000082169050919050565b61312c816130f8565b8114613136575f80fd5b50565b5f8135905061314781613123565b92915050565b5f60208284031215613162576131616130f0565b5b5f61316f84828501613139565b91505092915050565b5f8115159050919050565b61318c81613178565b82525050565b5f6020820190506131a55f830184613183565b92915050565b5f81519050919050565b5f82825260208201905092915050565b5f5b838110156131e25780820151818401526020810190506131c7565b5f8484015250505050565b5f601f19601f8301169050919050565b5f613207826131ab565b61321181856131b5565b93506132218185602086016131c5565b61322a816131ed565b840191505092915050565b5f6020820190508181035f83015261324d81846131fd565b905092915050565b5f819050919050565b61326781613255565b8114613271575f80fd5b50565b5f813590506132828161325e565b92915050565b5f6020828403121561329d5761329c6130f0565b5b5f6132aa84828501613274565b91505092915050565b5f73ffffffffffffffffffffffffffffffffffffffff82169050919050565b5f6132dc826132b3565b9050919050565b6132ec816132d2565b82525050565b5f6020820190506133055f8301846132e3565b92915050565b613314816132d2565b811461331e575f80fd5b50565b5f8135905061332f8161330b565b92915050565b5f806040838503121561334b5761334a6130f0565b5b5f61335885828601613321565b925050602061336985828601613274565b9150509250929050565b5f805f6060848603121561338a576133896130f0565b5b5f61339786828701613321565b93505060206133a886828701613321565b92505060406133b986828701613274565b9150509250925092565b5f80fd5b5f80fd5b5f80fd5b5f8083601f8401126133e4576133e36133c3565b5b8235905067ffffffffffffffff811115613401576134006133c7565b5b60208301915083600182028301111561341d5761341c6133cb565b5b9250929050565b5f805f6040848603121561343b5761343a6130f0565b5b5f61344886828701613274565b935050602084013567ffffffffffffffff811115613469576134686130f4565b5b613475868287016133cf565b92509250509250925092565b5f60208284031215613496576134956130f0565b5b5f6134a384828501613321565b91505092915050565b6134b581613255565b82525050565b5f6020820190506134ce5f8301846134ac565b92915050565b5f80fd5b7f4e487b71000000000000000000000000000000000000000000000000000000005f52604160045260245ffd5b61350e826131ed565b810181811067ffffffffffffffff8211171561352d5761352c6134d8565b5b80604052505050565b5f61353f6130e7565b905061354b8282613505565b919050565b5f67ffffffffffffffff82111561356a576135696134d8565b5b613573826131ed565b9050602081019050919050565b828183375f83830152505050565b5f6135a061359b84613550565b613536565b9050828152602081018484840111156135bc576135bb6134d4565b5b6135c7848285613580565b509392505050565b5f82601f8301126135e3576135e26133c3565b5b81356135f384826020860161358e565b91505092915050565b5f805f60608486031215613613576136126130f0565b5b5f61362086828701613321565b935050602061363186828701613274565b925050604084013567ffffffffffffffff811115613652576136516130f4565b5b61365e868287016135cf565b9150509250925092565b5f7fff0000000000000000000000000000000000000000000000000000000000000082169050919050565b61369c81613668565b82525050565b5f819050919050565b6136b4816136a2565b82525050565b5f81519050919050565b5f82825260208201905092915050565b5f819050602082019050919050565b6136ec81613255565b82525050565b5f6136fd83836136e3565b60208301905092915050565b5f602082019050919050565b5f61371f826136ba565b61372981856136c4565b9350613734836136d4565b805f5b8381101561376457815161374b88826136f2565b975061375683613709565b925050600181019050613737565b5085935050505092915050565b5f60e0820190506137845f83018a613693565b818103602083015261379681896131fd565b905081810360408301526137aa81886131fd565b90506137b960608301876134ac565b6137c660808301866132e3565b6137d360a08301856136ab565b81810360c08301526137e58184613715565b905098975050505050505050565b5f8060408385031215613809576138086130f0565b5b5f61381685828601613274565b925050602083013567ffffffffffffffff811115613837576138366130f4565b5b613843858286016135cf565b9150509250929050565b61385681613178565b8114613860575f80fd5b50565b5f813590506138718161384d565b92915050565b5f806040838503121561388d5761388c6130f0565b5b5f61389a85828601613321565b92505060206138ab85828601613863565b9150509250929050565b5f6020820190508181035f8301526138cd8184613715565b905092915050565b5f67ffffffffffffffff8211156138ef576138ee6134d8565b5b6138f8826131ed565b9050602081019050919050565b5f613917613912846138d5565b613536565b905082815260208101848484011115613933576139326134d4565b5b61393e848285613580565b509392505050565b5f82601f83011261395a576139596133c3565b5b813561396a848260208601613905565b91505092915050565b5f805f806080858703121561398b5761398a6130f0565b5b5f61399887828801613321565b94505060206139a987828801613321565b93505060406139ba87828801613274565b925050606085013567ffffffffffffffff8111156139db576139da6130f4565b5b6139e787828801613946565b91505092959194509250565b5f60ff82169050919050565b613a08816139f3565b8114613a12575f80fd5b50565b5f81359050613a23816139ff565b92915050565b613a32816136a2565b8114613a3c575f80fd5b50565b5f81359050613a4d81613a29565b92915050565b5f805f805f805f8060e0898b031215613a6f57613a6e6130f0565b5b5f613a7c8b828c01613321565b9850506020613a8d8b828c01613274565b975050604089013567ffffffffffffffff811115613aae57613aad6130f4565b5b613aba8b828c016133cf565b96509650506060613acd8b828c01613274565b9450506080613ade8b828c01613a15565b93505060a0613aef8b828c01613a3f565b92505060c0613b008b828c01613a3f565b9150509295985092959890939650565b5f8060408385031215613b2657613b256130f0565b5b5f613b3385828601613321565b9250506020613b4485828601613321565b9150509250929050565b5f8060408385031215613b6457613b636130f0565b5b5f613b7185828601613274565b9250506020613b8285828601613274565b9150509250929050565b7f4e487b71000000000000000000000000000000000000000000000000000000005f52602260045260245ffd5b5f6002820490506001821680613bd057607f821691505b602082108103613be357613be2613b8c565b5b50919050565b5f606082019050613bfc5f8301866132e3565b613c0960208301856134ac565b613c1660408301846132e3565b949350505050565b7f436f6c6f7220616c7265616479206d696e7465640000000000000000000000005f82015250565b5f613c526014836131b5565b9150613c5d82613c1e565b602082019050919050565b5f6020820190508181035f830152613c7f81613c46565b9050919050565b7f496e73756666696369656e74207061796d656e740000000000000000000000005f82015250565b5f613cba6014836131b5565b9150613cc582613c86565b602082019050919050565b5f6020820190508181035f830152613ce781613cae565b9050919050565b7f4e487b71000000000000000000000000000000000000000000000000000000005f52601160045260245ffd5b5f613d2582613255565b91507fffffffffffffffffffffffffffffffffffffffffffffffffffffffffffffffff8203613d5757613d56613cee565b5b600182019050919050565b5f819050815f5260205f209050919050565b5f8154613d8081613bb9565b613d8a81866131b5565b9450600182165f8114613da45760018114613dba57613dec565b60ff198316865281151560200286019350613dec565b613dc385613d62565b5f5b83811015613de457815481890152600182019150602081019050613dc5565b808801955050505b50505092915050565b5f604082019050613e085f8301856134ac565b8181036020830152613e1a8184613d74565b90509392505050565b7f4e6f74206f776e657200000000000000000000000000000000000000000000005f82015250565b5f613e576009836131b5565b9150613e6282613e23565b602082019050919050565b5f6020820190508181035f830152613e8481613e4b565b9050919050565b5f604082019050613e9e5f8301856134ac565b613eab60208301846134ac565b9392505050565b7f436f6c6f7220616c7265616479206578697374730000000000000000000000005f82015250565b5f613ee66014836131b5565b9150613ef182613eb2565b602082019050919050565b5f6020820190508181035f830152613f1381613eda565b9050919050565b7f5369676e617475726520657870697265640000000000000000000000000000005f82015250565b5f613f4e6011836131b5565b9150613f5982613f1a565b602082019050919050565b5f6020820190508181035f830152613f7b81613f42565b9050919050565b5f81905092915050565b5f613f978385613f82565b9350613fa4838584613580565b82840190509392505050565b5f613fbc828486613f8c565b91508190509392505050565b5f60a082019050613fdb5f8301886136ab565b613fe860208301876132e3565b613ff560408301866134ac565b61400260608301856136ab565b61400f60808301846134ac565b9695505050505050565b7f496e76616c6964207369676e61747572650000000000000000000000000000005f82015250565b5f61404d6011836131b5565b915061405882614019565b602082019050919050565b5f6020820190508181035f83015261407a81614041565b9050919050565b5f6020601f8301049050919050565b5f82821b905092915050565b5f600883026140cb7fffffffffffffffffffffffffffffffffffffffffffffffffffffffffffffffff82614090565b6140d58683614090565b95508019841693508086168417925050509392505050565b5f819050919050565b5f61411061410b61410684613255565b6140ed565b613255565b9050919050565b5f819050919050565b614129836140f6565b61413d61413582614117565b84845461409c565b825550505050565b5f90565b614151614145565b61415c818484614120565b505050565b5b8181101561417f576141745f82614149565b600181019050614162565b5050565b601f8211156141c45761419581613d62565b61419e84614081565b810160208510156141ad578190505b6141c16141b985614081565b830182614161565b50505b505050565b5f82821c905092915050565b5f6141e45f19846008026141c9565b1980831691505092915050565b5f6141fc83836141d5565b9150826002028217905092915050565b614215826131ab565b67ffffffffffffffff81111561422e5761422d6134d8565b5b6142388254613bb9565b614243828285614183565b5f60209050601f831160018114614274575f8415614262578287015190505b61426c85826141f1565b8655506142d3565b601f19841661428286613d62565b5f5b828110156142a957848901518255600182019150602085019450602081019050614284565b868310156142c657848901516142c2601f8916826141d5565b8355505b6001600288020188555050505b505050505050565b7f4e487b71000000000000000000000000000000000000000000000000000000005f52603260045260245ffd5b5f61431282613255565b915061431d83613255565b925082820390508181111561433557614334613cee565b5b92915050565b7f4e487b71000000000000000000000000000000000000000000000000000000005f52603160045260245ffd5b5f81519050919050565b5f82825260208201905092915050565b5f61438c82614368565b6143968185614372565b93506143a68185602086016131c5565b6143af816131ed565b840191505092915050565b5f6080820190506143cd5f8301876132e3565b6143da60208301866132e3565b6143e760408301856134ac565b81810360608301526143f98184614382565b905095945050505050565b5f8151905061441281613123565b92915050565b5f6020828403121561442d5761442c6130f0565b5b5f61443a84828501614404565b91505092915050565b5f81905092915050565b5f614457826131ab565b6144618185614443565b93506144718185602086016131c5565b80840191505092915050565b5f614488828561444d565b9150614494828461444d565b91508190509392505050565b5f6040820190506144b35f8301856132e3565b6144c060208301846134ac565b9392505050565b6144d0816139f3565b82525050565b5f6080820190506144e95f8301876136ab565b6144f660208301866144c7565b61450360408301856136ab565b61451060608301846136ab565b95945050505050565b7f4e487b71000000000000000000000000000000000000000000000000000000005f52602160045260245ffd5b5f6020820190506145595f8301846136ab565b92915050565b5f60a0820190506145725f8301886136ab565b61457f60208301876136ab565b61458c60408301866136ab565b61459960608301856134ac565b6145a660808301846132e3565b9695505050505050565b7f4e487b71000000000000000000000000000000000000000000000000000000005f52601260045260245ffdfea2646970667358221220ed5d348759902ef33162aa2a1f6f13172c07ab7ca37842108b5a91a5b69fa22b64736f6c63430008140033",
  "linkReferences": {},
  "deployedLinkReferences": {},
  "immutableReferences": {
    "6603": [
      {
        "length": 32,
        "start": 10379
      }
    ],
    "6605": [
      {
        "length": 32,
        "start": 10338
      }
    ],
    "6607": [
      {
        "length": 32,
        "start": 10252
      }
    ],
    "6609": [
      {
        "length": 32,
        "start": 11789
      }
    ],
    "6611": [
      {
        "length": 32,
        "start": 11822
      }
    ],
    "6614": [
      {
        "length": 32,
        "start": 8001
      }
    ],
    "6617": [
      {
        "length": 32,
        "start": 8060
      }
    ]
  },
  "inputSourceName": "project/contract/core/FemColors.sol",
  "buildInfoId": "solc-0_8_20-488d64900cb6b250b6e40c2064f13eb139a2e578"
}